:020000040800F2
:10000000800A0020359E0208759F0208799F020829
:100010007D9F0208819F0208859F02080000000062
:1000200000000000000000000000000015000208B1
:10003000899F020800000000BDFF0108D59E02084C
:100040008D9F0208919F0208959F0208999F0208C0
:100050009D9F0208A19F0208A59F0208A99F020870
:10006000AD9F0208D1C30108B19F0208B59F0208E5
:10007000B99F0208BD9F0208C19F0208C59F0208E0
:10008000C99F0208CD9F0208D19F0208D59F020890
:10009000D99F0208DD9F0208E19F020815C40108EC
:1000A000E59F0208E99F0208ED9F0208F19F020800
:1000B000F59F0208F99F0208FD9F020801A00208AF
:1000C00005A0020809A002080DA0020811A002085C
:1000D00015A0020819A002081DA0020821A002080C
:1000E00025A0020829A002082DA0020831A00208BC
:1000F00035A0020839A002083DA0020841A002086C
:1001000045A0020849A002084DA0020851A002081B
:1001100055A0020859A002085DA0020861A00208CB
:1001200065A0020869A002086DA0020871A002087B
:1001300075A0020879A002087DA0020881A002082B
:1001400085A0020889A002088DA0020891A00208DB
:1001500095A0020899A002089DA00208A1A002088B
:10016000A5A00208A9A00208ADA00208B1A002083B
:10017000B5A00208B9A00208BDA002080000000056
:10018000C1A00208C5A00208C9A00208CDA00208AB
:10019000D1A00208D5A00208D9A00208DDA002085B
:1001A000E1A00208E5A00208E9A00208FFFFFFFFA6
:1001B000FFFFFFFFFFFFFFFFFFFFFFFFFFFFFFFF4F
:1001C000FFFFFFFFFFFFFFFFFFFFFFFFFFFFFFFF3F
:1001D000FFFFFFFFFFFFFFFFFFFFFFFFFFFFFFFF2F
:1001E000FFFFFFFFFFFFFFFFFFFFFFFFFFFFFFFF1F
:1001F000FFFFFFFFFFFFFFFFFFFFFFFFFFFFFFFF0F
:10020000FFFFFFFFFFFFFFFFFFFFFFFFFFFFFFFFFE
:10021000FFFFFFFFFFFFFFFFFFFFFFFFFFFFFFFFEE
:10022000FFFFFFFFFFFFFFFFFFFFFFFFFFFFFFFFDE
:10023000FFFFFFFFFFFFFFFFFFFFFFFFFFFFFFFFCE
:10024000FFFFFFFFFFFFFFFFFFFFFFFFFFFFFFFFBE
:10025000DFFF96B5EB5A8A5234A5BEF7FFFFFFFFCA
:10026000FFFFFFFFFFFFFFFFFFFFFFFFFFFFFFFF9E
:10027000FFFFFFFFFFFFFFFFFFFFFFFFFFFFFFFF8E
:10028000FFFFFFFFFFFFFFFFFFFFFFFFFFFFFFFF7E
:10029000FFFFFFFFFFFFFFFFFFFFFFFFFFFFFFFF6E
:1002A000FFFFFFFFFFFFFFFFFFFFFFFFFFFFFFFF5E
:1002B000FFFFFFFFFFFFFFFFFFFFFFFFFFFFFFFF4E
:1002C000FFFFFFFFFFFFFFFFFFFFFFFFFFFFFFFF3E
:1002D000FFFFFFFFFFFFFFFFFFFFFFFFFFFFFFFF2E
:1002E000FFFFFFFFFFFFFFFFFFFFFFFFFFFFFFFF1E
:1002F000FFFFFFFFFFFFFFFFFFFFFFFFFFFFFFFF0E
:10030000FFFFFFFFFFFFFFFFFFFFFFFFFFFFFFFFFD
:10031000FFFFFFFFFFFFFFFFFFFFFFFFFFFFFFFFED
:10032000FFFFFFFFFFFFFFFFFFFFFFFFFFFFFFFFDD
:10033000FFFFFFFFFFFFFFFFFFFFFFFFFFFFFFFFCD
:10034000FFFFFFFFFFFFFFFFFFFFFFFFFFFFFFFFBD
:10035000FFFFFFFFFFFFFFFFFFFFFFFFFFFFFFFFAD
:10036000FFFFFFFFFFFFFFFFFFFFFFFFFFFFFFFF9D
:10037000FFFFFFFFFFFFFFFFFFFFFFFFFFFFFFFF8D
:10038000FFFFFFFFFFFFFFFFFFFFFFFFFFFFFFFF7D
:10039000FFFFFFFFFFFFFFFFFFFFFFFFFFFFFFFF6D
:1003A000FFFFFFFFFFFFFFFFFFFFFFFFFFFFFFFF5D
:1003B000FFFFFFFFFFFFFFFFFFFFFFFFFFFFFFFF4D
:1003C000FFFFFFFFFFFFFFFFFFFFFFFFFFFFFFFF3D
:1003D000FFFFFFFFFFFFFFFFFFFFFFFF9EF7F39C05
:1003E000494AC639C639C639C639284292943CE7CB
:1003F000FFFFFFFFFFFFFFFFFFFFFFFFFFFFFFFF0D
:10040000FFFFFFFFFFFFFFFFFFFFFFFFFFFFFFFFFC
:10041000FFFFFFFFFFFFFFFFFFFFFFFFFFFFFFFFEC
:10042000FFFFFFFFFFFFFFFFFFFFFFFFFFFFFFFFDC
:10043000FFFFFFFFFFFFFFFFFFFFFFFFFFFFFFFFCC
:10044000FFFFFFFFFFFFFFFFFFFFFFFFFFFFFFFFBC
:10045000FFFFFFFFFFFFFFFFFFFFFFFFFFFFFFFFAC
:10046000FFFFFFFFFFFFFFFFFFFFFFFFFFFFFFFF9C
:10047000FFFFFFFFFFFFFFFFFFFFFFFFFFFFFFFF8C
:10048000FFFFFFFFFFFFFFFFFFFFFFFFFFFFFFFF7C
:10049000FFFFFFFFFFFFFFFFFFFFFFFFFFFFFFFF6C
:1004A000FFFFFFFFFFFFFFFFFFFFFFFFFFFFFFFF5C
:1004B000FFFFFFFFFFFFFFFFFFFFFFFFFFFFFFFF4C
:1004C000FFFFFFFFFFFFFFFFFFFFFFFFFFFFFFFF3C
:1004D000FFFFFFFFFFFFFFFFFFFFFFFFFFFFFFFF2C
:1004E000FFFFFFFFFFFFFFFFFFFFFFFFFFFFFFFF1C
:1004F000FFFFFFFFFFFFFFFFFFFFFFFFFFFFFFFF0C
:10050000FFFFFFFFFFFFFFFFFFFFFFFFFFFFFFFFFB
:10051000FFFFFFFFFFFFFFFFFFFFFFFFFFFFFFFFEB
:10052000FFFFFFFFFFFFFFFFFFFFFFFFFFFFFFFFDB
:10053000FFFFFFFFFFFFFFFFFFFFFFFFFFFFFFFFCB
:10054000FFFFFFFFFFFFFFFFFFFFFFFFFFFFFFFFBB
:10055000FFFFFFFFFFFFFFFFFFFFFFFFFFFFFFFFAB
:10056000FFFFFFFFFFFFFFFF5DEF91940742C639DA
:10057000C639C639C639C639C639C639C639E73962
:1005800010841BE7FFFFFFFFFFFFFFFFFFFFFFFFE1
:10059000FFFFFFFFFFFFFFFFFFFFFFFFFFFFFFFF6B
:1005A000FFFFFFFFFFFFFFFFFFFFFFFFFFFFFFFF5B
:1005B000FFFFFFFFFFFFFFFFFFFFFFFFFFFFFFFF4B
:1005C000FFFFFFFFFFFFFFFFFFFFFFFFFFFFFFFF3B
:1005D000FFFFFFFFFFFFFFFFFFFFFFFFFFFFFFFF2B
:1005E000FFFFFFFFFFFFFFFFFFFFFFFFFFFFFFFF1B
:1005F000FFFFFFFFFFFFFFFFFFFFFFFFFFFFFFFF0B
:10060000FFFFFFFFFFFFFFFFFFFFFFFFFFFFFFFFFA
:10061000FFFFFFFFFFFFFFFFFFFFFFFFFFFFFFFFEA
:10062000FFFFFFFFFFFFFFFFFFFFFFFFFFFFFFFFDA
:10063000FFFFFFFFFFFFFFFFFFFFFFFFFFFFFFFFCA
:10064000FFFFFFFFFFFFFFFFFFFFFFFFFFFFFFFFBA
:10065000FFFFFFFFFFFFFFFFFFFFFFFFFFFFFFFFAA
:10066000FFFFFFFFFFFFFFFFFFFFFFFFFFFFFFFF9A
:10067000FFFFFFFFFFFFFFFFFFFFFFFFFFFFFFFF8A
:10068000FFFFFFFFFFFFFFFFFFFFFFFFFFFFFFFF7A
:10069000FFFFFFFFFFFFFFFFFFFFFFFFFFFFFFFF6A
:1006A000FFFFFFFFFFFFFFFFFFFFFFFFFFFFFFFF5A
:1006B000FFFFFFFFFFFFFFFFFFFFFFFFFFFFFFFF4A
:1006C000FFFFFFFFFFFFFFFFFFFFFFFFFFFFFFFF3A
:1006D000FFFFFFFFFFFFFFFFFFFFFFFFFFFFFFFF2A
:1006E000FFFFFFFFFFFFFFFFFFFFFFFFFFFFFFFF1A
:1006F000FFFFFFFF3CE73084E739C639C639C6390A
:10070000C639C639C639C639C639C639C639C639F1
:10071000C639C739CF7BDBDEFFFFFFFFFFFFFFFFDF
:10072000FFFFFFFFFFFFFFFFFFFFFFFFFFFFFFFFD9
:10073000FFFFFFFFFFFFFFFFFFFFFFFFFFFFFFFFC9
:10074000FFFFFFFFFFFFFFFFFFFFFFFFFFFFFFFFB9
:10075000FFFFFFFFFFFFFFFFFFFFFFFFFFFFFFFFA9
:10076000FFFFFFFFFFFFFFFFFFFFFFFFFFFFFFFF99
:10077000FFFFFFFFFFFFFFFFFFFFFFFFFFFFFFFF89
:10078000FFFFFFFFFFFFFFFFFFFFFFFFFFFFFFFF79
:10079000FFFFFFFFFFFFFFFFFFFFFFFFFFFFFFFF69
:1007A000FFFFFFFFFFFFFFFFFFFFFFFFFFFFFFFF59
:1007B000FFFFFFFFFFFFFFFFFFFFFFFFFFFFFFFF49
:1007C000FFFFFFFFFFFFFFFFFFFFFFFFFFFFFFFF39
:1007D000FFFFFFFFFFFFFFFFFFFFFFFFFFFFFFFF29
:1007E000FFFFFFFFFFFFFFFFFFFFFFFFFFFFFFFF19
:1007F000FFFFFFFFFFFFFFFFFFFFFFFFFFFFFFFF09
:10080000FFFFFFFFFFFFFFFFFFFFFFFFFFFFFFFFF8
:10081000FFFFFFFFFFFFFFFFFFFFFFFFFFFFFFFFE8
:10082000FFFFFFFFFFFFFFFFFFFFFFFFFFFFFFFFD8
:10083000FFFFFFFFFFFFFFFFFFFFFFFFFFFFFFFFC8
:10084000FFFFFFFFFFFFFFFFFFFFFFFFFFFFFFFFB8
:10085000FFFFFFFFFFFFFFFFFFFFFFFFFFFFFFFFA8
:10086000FFFFFFFFFFFFFFFFFFFFFFFFFFFFFFFF98
:10087000FFFFFFFFFFFFFFFFFFFFFFFFFFFFFFFF88
:100880005DEF518CE739C639C639C639C639C63924
:10089000C639C639C639C639C639C639C639C63960
:1008A000C639C639C639C739CF7BFBDEFFFFFFFF2C
:1008B000FFFFFFFFFFFFFFFFFFFFFFFFFFFFFFFF48
:1008C000FFFFFFFFFFFFFFFFFFFFFFFFFFFFFFFF38
:1008D000FFFFFFFFFFFFFFFFFFFFFFFFFFFFFFFF28
:1008E000FFFFFFFFFFFFFFFFFFFFFFFFFFFFFFFF18
:1008F000FFFFFFFFFFFFFFFFFFFFFFFFFFFFFFFF08
:10090000FFFFFFFFFFFFFFFFFFFFFFFFFFFFFFFFF7
:10091000FFFFFFFFFFFFFFFFFFFFFFFFFFFFFFFFE7
:10092000FFFFFFFFFFFFFFFFFFFFFFFFFFFFFFFFD7
:10093000FFFFFFFFFFFFFFFFFFFFFFFFFFFFFFFFC7
:10094000FFFFFFFFFFFFFFFFFFFFFFFFFFFFFFFFB7
:10095000FFFFFFFFFFFFFFFFFFFFFFFFFFFFFFFFA7
:10096000FFFFFFFFFFFFFFFFFFFFFFFFFFFFFFFF97
:10097000FFFFFFFFFFFFFFFFFFFFFFFFFFFFFFFF87
:10098000FFFFFFFFFFFFFFFFFFFFFFFFFFFFFFFF77
:10099000FFFFFFFFFFFFFFFFFFFFFFFFFFFFFFFF67
:1009A000FFFFFFFFFFFFFFFFFFFFFFFFFFFFFFFF57
:1009B000FFFFFFFFFFFFFFFFFFFFFFFFFFFFFFFF47
:1009C000FFFFFFFFFFFFFFFFFFFFFFFFFFFFFFFF37
:1009D000FFFFFFFFFFFFFFFFFFFFFFFFFFFFFFFF27
:1009E000FFFFFFFFFFFFFFFFFFFFFFFFFFFFFFFF17
:1009F000FFFFFFFFFFFFFFFFFFFFFFFFFFFFFFFF07
:100A0000FFFFFFFFFFFFFFFFFFFFFFFF9EF7929437
:100A1000E739C639C639C639C639C639C639C639BD
:100A2000C639C639C639C639C639C639C639C639CE
:100A3000C639C639C639C639C639C7390F843CE705
:100A4000FFFFFFFFFFFFFFFFFFFFFFFFFFFFFFFFB6
:100A5000FFFFFFFFFFFFFFFFFFFFFFFFFFFFFFFFA6
:100A6000FFFFFFFFFFFFFFFFFFFFFFFFFFFFFFFF96
:100A7000FFFFFFFFFFFFFFFFFFFFFFFFFFFFFFFF86
:100A8000FFFFFFFFFFFFFFFFFFFFFFFFFFFFFFFF76
:100A9000FFFFFFFFFFFFFFFFFFFFFFFFFFFFFFFF66
:100AA000FFFFFFFFFFFFFFFFFFFFFFFFFFFFFFFF56
:100AB000FFFFFFFFFFFFFFFFFFFFFFFFFFFFFFFF46
:100AC000FFFFFFFFFFFFFFFFFFFFFFFFFFFFFFFF36
:100AD000FFFFFFFFFFFFFFFFFFFFFFFFFFFFFFFF26
:100AE000FFFFFFFFFFFFFFFFFFFFFFFFFFFFFFFF16
:100AF000FFFFFFFFFFFFFFFFFFFFFFFFFFFFFFFF06
:100B0000FFFFFFFFFFFFFFFFFFFFFFFFFFFFFFFFF5
:100B1000FFFFFFFFFFFFFFFFFFFFFFFFFFFFFFFFE5
:100B2000FFFFFFFFFFFFFFFFFFFFFFFFFFFFFFFFD5
:100B3000FFFFFFFFFFFFFFFFFFFFFFFFFFFFFFFFC5
:100B4000FFFFFFFFFFFFFFFFFFFFFFFFFFFFFFFFB5
:100B5000FFFFFFFFFFFFFFFFFFFFFFFFFFFFFFFFA5
:100B6000FFFFFFFFFFFFFFFFFFFFFFFFFFFFFFFF95
:100B7000FFFFFFFFFFFFFFFFFFFFFFFFFFFFFFFF85
:100B8000FFFFFFFFFFFFFFFFFFFFFFFFFFFFFFFF75
:100B9000FFFFFFFFFFFFFFFFDFFF14A52842C6395D
:100BA000C639C639C639C639C639C639C639C6394D
:100BB000C639C639C639C639C639C639C639C6393D
:100BC000C639C639C639C639C639C639C639E7390C
:100BD00092949EF7FFFFFFFFFFFFFFFFFFFFFFFF66
:100BE000FFFFFFFFFFFFFFFFFFFFFFFFFFFFFFFF15
:100BF000FFFFFFFFFFFFFFFFFFFFFFFFFFFFFFFF05
:100C0000FFFFFFFFFFFFFFFFFFFFFFFFFFFFFFFFF4
:100C1000FFFFFFFFFFFFFFFFFFFFFFFFFFFFFFFFE4
:100C2000FFFFFFFFFFFFFFFFFFFFFFFFFFFFFFFFD4
:100C3000FFFFFFFFFFFFFFFFFFFFFFFFFFFFFFFFC4
:100C4000FFFFFFFFFFFFFFFFFFFFFFFFFFFFFFFFB4
:100C5000FFFFFFFFFFFFFFFFFFFFFFFFFFFFFFFFA4
:100C6000FFFFFFFFFFFFFFFFFFFFFFFFFFFFFFFF94
:100C7000FFFFFFFFFFFFFFFFFFFFFFFFFFFFFFFF84
:100C8000FFFFFFFFFFFFFFFFFFFFFFFFFFFFFFFF74
:100C9000FFFFFFFFFFFFFFFFFFFFFFFFFFFFFFFF64
:100CA000FFFFFFFFFFFFFFFFFFFFFFFFFFFFFFFF54
:100CB000FFFFFFFFFFFFFFFFFFFFFFFFFFFFFFFF44
:100CC000FFFFFFFFFFFFFFFFFFFFFFFFFFFFFFFF34
:100CD000FFFFFFFFFFFFFFFFFFFFFFFFFFFFFFFF24
:100CE000FFFFFFFFFFFFFFFFFFFFFFFFFFFFFFFF14
:100CF000FFFFFFFFFFFFFFFFFFFFFFFFFFFFFFFF04
:100D0000FFFFFFFFFFFFFFFFFFFFFFFFFFFFFFFFF3
:100D1000FFFFFFFFFFFFFFFFFFFFFFFFFFFFFFFFE3
:100D2000FFFFFFFFFFFFF7BD8952C639C639C6393D
:100D3000C639C639C639C639C639C639C639C639BB
:100D4000C639C639C639C639C639C639C639C639AB
:100D5000C639C639C639C639C639C639C639C6399B
:100D6000C639284234ADFFFFFFFFFFFFFFFFFFFF43
:100D7000FFFFFFFFFFFFFFFFFFFFFFFFFFFFFFFF83
:100D8000FFFFFFFFFFFFFFFFFFFFFFFFFFFFFFFF73
:100D9000FFFFFFFFFFFFFFFFFFFFFFFFFFFFFFFF63
:100DA000FFFFFFFFFFFFFFFFFFFFFFFFFFFFFFFF53
:100DB000FFFFFFFFFFFFFFFFFFFFFFFFFFFFFFFF43
:100DC000FFFFFFFFFFFFFFFFFFFFFFFFFFFFFFFF33
:100DD000FFFFFFFFFFFFFFFFFFFFFFFFFFFFFFFF23
:100DE000FFFFFFFFFFFFFFFFFFFFFFFFFFFFFFFF13
:100DF000FFFFFFFFFFFFFFFFFFFFFFFFFFFFFFFF03
:100E0000FFFFFFFFFFFFFFFFFFFFFFFFFFFFFFFFF2
:100E1000FFFFFFFFFFFFFFFFFFFFFFFFFFFFFFFFE2
:100E2000FFFFFFFFFFFFFFFFFFFFFFFFFFFFFFFFD2
:100E3000FFFFFFFFFFFFFFFFFFFFFFFFFFFFFFFFC2
:100E4000FFFFFFFFFFFFFFFFFFFFFFFFFFFFFFFFB2
:100E5000FFFFFFFFFFFFFFFFFFFFFFFFFFFFFFFFA2
:100E6000FFFFFFFFFFFFFFFFFFFFFFFFFFFFFFFF92
:100E7000FFFFFFFFFFFFFFFFFFFFFFFFFFFFFFFF82
:100E8000FFFFFFFFFFFFFFFFFFFFFFFFFFFFFFFF72
:100E9000FFFFFFFFFFFFFFFFFFFFFFFFFFFFFFFF62
:100EA000FFFFFFFFFFFFFFFFFFFFFFFFFFFFFFFF52
:100EB000FFFFDBDE4C6BC639C639C639C639C639C9
:100EC000C639C639C639C639C639C639C639C6392A
:100ED000C639C639C639C639C639C639C639C6391A
:100EE000C639C639C639C639C639C639C639C6390A
:100EF000C639C639C639CB5A59CEFFFFFFFFFFFFAF
:100F0000FFFFFFFFFFFFFFFFFFFFFFFFFFFFFFFFF1
:100F1000FFFFFFFFFFFFFFFFFFFFFFFFFFFFFFFFE1
:100F2000FFFFFFFFFFFFFFFFFFFFFFFFFFFFFFFFD1
:100F3000FFFFFFFFFFFFFFFFFFFFFFFFFFFFFFFFC1
:100F4000FFFFFFFFFFFFFFFFFFFFFFFFFFFFFFFFB1
:100F5000FFFFFFFFFFFFFFFFFFFFFFFFFFFFFFFFA1
:100F6000FFFFFFFFFFFFFFFFFFFFFFFFFFFFFFFF91
:100F7000FFFFFFFFFFFFFFFFFFFFFFFFFFFFFFFF81
:100F8000FFFFFFFFFFFFFFFFFFFFFFFFFFFFFFFF71
:100F9000FFFFFFFFFFFFFFFFFFFFFFFFFFFFFFFF61
:100FA000FFFFFFFFFFFFFFFFFFFFFFFFFFFFFFFF51
:100FB000FFFFFFFFFFFFFFFFFFFFFFFFFFFFFFFF41
:100FC000FFFFFFFFFFFFFFFFFFFFFFFFFFFFFFFF31
:100FD000FFFFFFFFFFFFFFFFFFFFFFFFFFFFFFFF21
:100FE000FFFFFFFFFFFFFFFFFFFFFFFFFFFFFFFF11
:100FF000FFFFFFFFFFFFFFFFFFFFFFFFFFFFFFFF01
:10100000FFFFFFFFFFFFFFFFFFFFFFFFFFFFFFFFF0
:10101000FFFFFFFFFFFFFFFFFFFFFFFFFFFFFFFFE0
:10102000FFFFFFFFFFFFFFFFFFFFFFFFFFFFFFFFD0
:10103000FFFFFFFFFFFFFFFFFFFFFFFFFFFFBEF709
:10104000718CC739C639C639C639C639C639C639A9
:10105000C639C639C639C639C639C639C639C63998
:10106000C639C639C639C639C639C639C639C63988
:10107000C639C639C639C639C639C639C639C63978
:10108000C639C639C639C639C639CF7B5DEFFFFFD1
:10109000FFFFFFFFFFFFFFFFFFFFFFFFFFFFFFFF60
:1010A000FFFFFFFFFFFFFFFFFFFFFFFFFFFFFFFF50
:1010B000FFFFFFFFFFFFFFFFFFFFFFFFFFFFFFFF40
:1010C000FFFFFFFFFFFFFFFFFFFFFFFFFFFFFFFF30
:1010D000FFFFFFFFFFFFFFFFFFFFFFFFFFFFFFFF20
:1010E000FFFFFFFFFFFFFFFFFFFFFFFFFFFFFFFF10
:1010F000FFFFFFFFFFFFFFFFFFFFFFFFFFFFFFFF00
:10110000FFFFFFFFFFFFFFFFFFFFFFFFFFFFFFFFEF
:10111000FFFFFFFFFFFFFFFFFFFFFFFFFFFFFFFFDF
:10112000FFFFFFFFFFFFFFFFFFFFFFFFFFFFFFFFCF
:10113000FFFFFFFFFFFFFFFFFFFFFFFFFFFFFFFFBF
:10114000FFFFFFFFFFFFFFFFFFFFFFFFFFFFFFFFAF
:10115000FFFFFFFFFFFFFFFFFFFFFFFFFFFFFFFF9F
:10116000FFFFFFFFFFFFFFFFFFFFFFFFFFFFFFFF8F
:10117000FFFFFFFFFFFFFFFFFFFFFFFFFFFFFFFF7F
:10118000FFFFFFFFFFFFFFFFFFFFFFFFFFFFFFFF6F
:10119000FFFFFFFFFFFFFFFFFFFFFFFFFFFFFFFF5F
:1011A000FFFFFFFFFFFFFFFFFFFFFFFFFFFFFFFF4F
:1011B000FFFFFFFFFFFFFFFFFFFFFFFFFFFFFFFF3F
:1011C000FFFFFFFFFFFFFFFFFFFFFFFFF7BD694AC4
:1011D000C639C639C639C639C639C639C639C63917
:1011E000C639C639C639C639C639C639C639C63907
:1011F000C639C639C639C639C639C639C639C639F7
:10120000C639C639C639C639C639C639C639C639E6
:10121000C639C639C639C639C639C639084255AD88
:10122000FFFFFFFFFFFFFFFFFFFFFFFFFFFFFFFFCE
:10123000FFFFFFFFFFFFFFFFFFFFFFFFFFFFFFFFBE
:10124000FFFFFFFFFFFFFFFFFFFFFFFFFFFFFFFFAE
:10125000FFFFFFFFFFFFFFFFFFFFFFFFFFFFFFFF9E
:10126000FFFFFFFFFFFFFFFFFFFFFFFFFFFFFFFF8E
:10127000FFFFFFFFFFFFFFFFFFFFFFFFFFFFFFFF7E
:10128000FFFFFFFFFFFFFFFFFFFFFFFFFFFFFFFF6E
:10129000FFFFFFFFFFFFFFFFFFFFFFFFFFFFFFFF5E
:1012A000FFFFFFFFFFFFFFFFFFFFFFFFFFFFFFFF4E
:1012B000FFFFFFFFFFFFFFFFFFFFFFFFFFFFFFFF3E
:1012C000FFFFFFFFFFFFFFFFFFFFFFFFFFFFFFFF2E
:1012D000FFFFFFFFFFFFFFFFFFFFFFFFFFFFFFFF1E
:1012E000FFFFFFFFFFFFFFFFFFFFFFFFFFFFFFFF0E
:1012F000FFFFFFFFFFFFFFFFFFFFFFFFFFFFFFFFFE
:10130000FFFFFFFFFFFFFFFFFFFFFFFFFFFFFFFFED
:10131000FFFFFFFFFFFFFFFFFFFFFFFFFFFFFFFFDD
:10132000FFFFFFFFFFFFFFFFFFFFFFFFFFFFFFFFCD
:10133000FFFFFFFFFFFFFFFFFFFFFFFFFFFFFFFFBD
:10134000FFFFFFFFFFFFFFFFFFFFFFFFFFFFFFFFAD
:10135000FFFFFFFFFFFFFFFF5DEFAE73C639C6392A
:10136000C639C639C639C639C639C639C639C63985
:10137000C639C639C639C639C639C639C639C63975
:10138000C639C639C639C639C639C639C639C63965
:10139000C639C639C639C639C639C639C639C63955
:1013A000C639C639C639C639C639C639C639C63945
:1013B0000C63DBDEFFFFFFFFFFFFFFFFFFFFFFFF11
:1013C000FFFFFFFFFFFFFFFFFFFFFFFFFFFFFFFF2D
:1013D000FFFFFFFFFFFFFFFFFFFFFFFFFFFFFFFF1D
:1013E000FFFFFFFFFFFFFFFFFFFFFFFFFFFFFFFF0D
:1013F000FFFFFFFFFFFFFFFFFFFFFFFFFFFFFFFFFD
:10140000FFFFFFFFFFFFFFFFFFFFFFFFFFFFFFFFEC
:10141000FFFFFFFFFFFFFFFFFFFFFFFFFFFFFFFFDC
:10142000FFFFFFFFFFFFFFFFFFFFFFFFFFFFFFFFCC
:10143000FFFFFFFFFFFFFFFFFFFFFFFFFFFFFFFFBC
:10144000FFFFFFFFFFFFFFFFFFFFFFFFFFFFFFFFAC
:10145000FFFFFFFFFFFFFFFFFFFFFFFFFFFFFFFF9C
:10146000FFFFFFFFFFFFFFFFFFFFFFFFFFFFFFFF8C
:10147000FFFFFFFFFFFFFFFFFFFFFFFFFFFFFFFF7C
:10148000FFFFFFFFFFFFFFFFFFFFFFFFFFFFFFFF6C
:10149000FFFFFFFFFFFFFFFFFFFFFFFFFFFFFFFF5C
:1014A000FFFFFFFFFFFFFFFFFFFFFFFFFFFFFFFF4C
:1014B000FFFFFFFFFFFFFFFFFFFFFFFFFFFFFFFF3C
:1014C000FFFFFFFFFFFFFFFFFFFFFFFFFFFFFFFF2C
:1014D000FFFFFFFFFFFFFFFFFFFFFFFFFFFFFFFF1C
:1014E000FFFFFFFFFFFF96B52842C639C639C63950
:1014F000C639C639C639C639C639C639C639C639F4
:10150000C639C639C639C639C639C639C639C639E3
:10151000C639C639C639C639C639C639C639C639D3
:10152000C639C639C639C639C639C639C639C639C3
:10153000C639C639C639C639C639C639C639C639B3
:10154000C639E739F39CFFFFFFFFFFFFFFFFFFFFF7
:10155000FFFFFFFFFFFFFFFFFFFFFFFFFFFFFFFF9B
:10156000FFFFFFFFFFFFFFFFFFFFFFFFFFFFFFFF8B
:10157000FFFFFFFFFFFFFFFFFFFFFFFFFFFFFFFF7B
:10158000FFFFFFFFFFFFFFFFFFFFFFFFFFFFFFFF6B
:10159000FFFFFFFFFFFFFFFFFFFFFFFFFFFFFFFF5B
:1015A000FFFFFFFFFFFFFFFFFFFFFFFFFFFFFFFF4B
:1015B000FFFFFFFFFFFFFFFFFFFFFFFFFFFFFFFF3B
:1015C000FFFFFFFFFFFFFFFFFFFFFFFFFFFFFFFF2B
:1015D000FFFFFFFFFFFFFFFFFFFFFFFFFFFFFFFF1B
:1015E000FFFFFFFFFFFFFFFFFFFFFFFFFFFFFFFF0B
:1015F000FFFFFFFFFFFFFFFFFFFFFFFFFFFFFFFFFB
:10160000FFFFFFFFFFFFFFFFFFFFFFFFFFFFFFFFEA
:10161000FFFFFFFFFFFFFFFFFFFFFFFFFFFFFFFFDA
:10162000FFFFFFFFFFFFFFFFFFFFFFFFFFFFFFFFCA
:10163000FFFFFFFFFFFFFFFFFFFFFFFFFFFFFFFFBA
:10164000FFFFFFFFFFFFFFFFFFFFFFFFFFFFFFFFAA
:10165000FFFFFFFFFFFFFFFFFFFFFFFFFFFFFFFF9A
:10166000FFFFFFFFFFFFFFFFFFFFFFFFFFFFFFFF8A
:10167000FFFF7DEF8E73C639C639C639C639C63904
:10168000C639C639C639C639C639C639C639C63962
:10169000C639C639C639C639C639C639C639C63952
:1016A000C639C639C639C639C639C639C639C63942
:1016B000C639C639C639C639C639C639C639C63932
:1016C000C639C639C639C639C639C639C639C63922
:1016D000C639C639C6390B63FBDEFFFFFFFFFFFFCC
:1016E000FFFFFFFFFFFFFFFFFFFFFFFFFFFFFFFF0A
:1016F000FFFFFFFFFFFFFFFFFFFFFFFFFFFFFFFFFA
:10170000FFFFFFFFFFFFFFFFFFFFFFFFFFFFFFFFE9
:10171000FFFFFFFFFFFFFFFFFFFFFFFFFFFFFFFFD9
:10172000FFFFFFFFFFFFFFFFFFFFFFFFFFFFFFFFC9
:10173000FFFFFFFFFFFFFFFFFFFFFFFFFFFFFFFFB9
:10174000FFFFFFFFFFFFFFFFFFFFFFFFFFFFFFFFA9
:10175000FFFFFFFFFFFFFFFFFFFFFFFFFFFFFFFF99
:10176000FFFFFFFFFFFFFFFFFFFFFFFFFFFFFFFF89
:10177000FFFFFFFFFFFFFFFFFFFFFFFFFFFFFFFF79
:10178000FFFFFFFFFFFFFFFFFFFFFFFFFFFFFFFF69
:10179000FFFFFFFFFFFFFFFFFFFFFFFFFFFFFFFF59
:1017A000FFFFFFFFFFFFFFFFFFFFFFFFFFFFFFFF49
:1017B000FFFFFFFFFFFFFFFFFFFFFFFFFFFFFFFF39
:1017C000FFFFFFFFFFFFFFFFFFFFFFFFFFFFFFFF29
:1017D000FFFFFFFFFFFFFFFFFFFFFFFFFFFFFFFF19
:1017E000FFFFFFFFFFFFFFFFFFFFFFFFFFFFFFFF09
:1017F000FFFFFFFFFFFFFFFFFFFFFFFFFFFFFFFFF9
:10180000F7BD484AC639C639C639C639C639C63998
:10181000C639C639C639C639C639C639C639C639D0
:10182000C639C639C639C639C639C639C639C639C0
:10183000C639C639C639C639C639C639C639C639B0
:10184000C639C639C639C639C639C639C639C639A0
:10185000C639C639C639C639C639C639C639C63990
:10186000C639C639C639C639E74155ADFFFFFFFF56
:10187000FFFFFFFFFFFFFFFFFFFFFFFFFFFFFFFF78
:10188000FFFFFFFFFFFFFFFFFFFFFFFFFFFFFFFF68
:10189000FFFFFFFFFFFFFFFFFFFFFFFFFFFFFFFF58
:1018A000FFFFFFFFFFFFFFFFFFFFFFFFFFFFFFFF48
:1018B000FFFFFFFFFFFFFFFFFFFFFFFFFFFFFFFF38
:1018C000FFFFFFFFFFFFFFFFFFFFFFFFFFFFFFFF28
:1018D000FFFFFFFFFFFFFFFFFFFFFFFFFFFFFFFF18
:1018E000FFFFFFFFFFFFFFFFFFFFFFFFFFFFFFFF08
:1018F000FFFFFFFFFFFFFFFFFFFFFFFFFFFFFFFFF8
:10190000FFFFFFFFFFFFFFFFFFFFFFFFFFFFFFFFE7
:10191000FFFFFFFFFFFFFFFFFFFFFFFFFFFFFFFFD7
:10192000FFFFFFFFFFFFFFFFFFFFFFFFFFFFFFFFC7
:10193000FFFFFFFFFFFFFFFFFFFFFFFFFFFFFFFFB7
:10194000FFFFFFFFFFFFFFFFFFFFFFFFFFFFFFFFA7
:10195000FFFFFFFFFFFFFFFFFFFFFFFFFFFFFFFF97
:10196000FFFFFFFFFFFFFFFFFFFFFFFFFFFFFFFF87
:10197000FFFFFFFFFFFFFFFFFFFFFFFFFFFFFFFF77
:10198000FFFFFFFFFFFFFFFFFFFFFFFFBEF710841A
:10199000C639C639C639C639C639C639C639C6394F
:1019A000C639C639C639C639C639C639C639C6393F
:1019B000C639C639C639C639C639C639C639C6392F
:1019C000C639C639C639C639C639C639C639C6391F
:1019D000C639C639C639C639C639C639C639C6390F
:1019E000C639C639C639C639C639C639C639C639FF
:1019F000C639C639C639C639C639C6398D737DEF81
:101A0000FFFFFFFFFFFFFFFFFFFFFFFFFFFFFFFFE6
:101A1000FFFFFFFFFFFFFFFFFFFFFFFFFFFFFFFFD6
:101A2000FFFFFFFFFFFFFFFFFFFFFFFFFFFFFFFFC6
:101A3000FFFFFFFFFFFFFFFFFFFFFFFFFFFFFFFFB6
:101A4000FFFFFFFFFFFFFFFFFFFFFFFFFFFFFFFFA6
:101A5000FFFFFFFFFFFFFFFFFFFFFFFFFFFFFFFF96
:101A6000FFFFFFFFFFFFFFFFFFFFFFFFFFFFFFFF86
:101A7000FFFFFFFFFFFFFFFFFFFFFFFFFFFFFFFF76
:101A8000FFFFFFFFFFFFFFFFFFFFFFFFFFFFFFFF66
:101A9000FFFFFFFFFFFFFFFFFFFFFFFFFFFFFFFF56
:101AA000FFFFFFFFFFFFFFFFFFFFFFFFFFFFFFFF46
:101AB000FFFFFFFFFFFFFFFFFFFFFFFFFFFFFFFF36
:101AC000FFFFFFFFFFFFFFFFFFFFFFFFFFFFFFFF26
:101AD000FFFFFFFFFFFFFFFFFFFFFFFFFFFFFFFF16
:101AE000FFFFFFFFFFFFFFFFFFFFFFFFFFFFFFFF06
:101AF000FFFFFFFFFFFFFFFFFFFFFFFFFFFFFFFFF6
:101B0000FFFFFFFFFFFFFFFFFFFFFFFFFFFFFFFFE5
:101B1000FFFFFFFFFFFFFFFFFFFFDBDEAA52C6391B
:101B2000C639C639C639C639C639C639C639C639BD
:101B3000C639C639C639C639C639C639C639C639AD
:101B4000C639C639C639C639C639C639C639C6399D
:101B5000C639C639C639C639C639C639C639C6398D
:101B6000C639C639C639C639C639C639C639C6397D
:101B7000C639C639C639C639C639C639C639C6396D
:101B8000C639C639C639C639C639C639C639494AC9
:101B900059CEFFFFFFFFFFFFFFFFFFFFFFFFFFFF2C
:101BA000FFFFFFFFFFFFFFFFFFFFFFFFFFFFFFFF45
:101BB000FFFFFFFFFFFFFFFFFFFFFFFFFFFFFFFF35
:101BC000FFFFFFFFFFFFFFFFFFFFFFFFFFFFFFFF25
:101BD000FFFFFFFFFFFFFFFFFFFFFFFFFFFFFFFF15
:101BE000FFFFFFFFFFFFFFFFFFFFFFFFFFFFFFFF05
:101BF000FFFFFFFFFFFFFFFFFFFFFFFFFFFFFFFFF5
:101C0000FFFFFFFFFFFFFFFFFFFFFFFFFFFFFFFFE4
:101C1000FFFFFFFFFFFFFFFFFFFFFFFFFFFFFFFFD4
:101C2000FFFFFFFFFFFFFFFFFFFFFFFFFFFFFFFFC4
:101C3000FFFFFFFFFFFFFFFFFFFFFFFFFFFFFFFFB4
:101C4000FFFFFFFFFFFFFFFFFFFFFFFFFFFFFFFFA4
:101C5000FFFFFFFFFFFFFFFFFFFFFFFFFFFFFFFF94
:101C6000FFFFFFFFFFFFFFFFFFFFFFFFFFFFFFFF84
:101C7000FFFFFFFFFFFFFFFFFFFFFFFFFFFFFFFF74
:101C8000FFFFFFFFFFFFFFFFFFFFFFFFFFFFFFFF64
:101C9000FFFFFFFFFFFFFFFFFFFFFFFFFFFFFFFF54
:101CA000FFFFFFFFFFFFFFFF96B5E741C639C639CB
:101CB000C639C639C639C639C639C639C639C6392C
:101CC000C639C639C639C639C639C639C639C6391C
:101CD000C639C639C639C639C639C639C639C6390C
:101CE000C639C639C639C639C639C639C639C639FC
:101CF000C639C639C639C639C639C639C639C639EC
:101D0000C639C639C639C639C639C639C639C639DB
:101D1000C639C639C639C639C639C639C639C639CB
:101D2000C739F39CFFFFFFFFFFFFFFFFFFFFFFFF30
:101D3000FFFFFFFFFFFFFFFFFFFFFFFFFFFFFFFFB3
:101D4000FFFFFFFFFFFFFFFFFFFFFFFFFFFFFFFFA3
:101D5000FFFFFFFFFFFFFFFFFFFFFFFFFFFFFFFF93
:101D6000FFFFFFFFFFFFFFFFFFFFFFFFFFFFFFFF83
:101D7000FFFFFFFFFFFFFFFFFFFFFFFFFFFFFFFF73
:101D8000FFFFFFFFFFFFFFFFFFFFFFFFFFFFFFFF63
:101D9000FFFFFFFFFFFFFFFFFFFFFFFFFFFFFFFF53
:101DA000FFFFFFFFFFFFFFFFFFFFFFFFFFFFFFFF43
:101DB000FFFFFFFFFFFFFFFFFFFFFFFFFFFFFFFF33
:101DC000FFFFFFFFFFFFFFFFFFFFFFFFFFFFFFFF23
:101DD000FFFFFFFFFFFFFFFFFFFFFFFFFFFFFFFF13
:101DE000FFFFFFFFFFFFFFFFFFFFFFFFFFFFFFFF03
:101DF000FFFFFFFFFFFFFFFFFFFFFFFFFFFFFFFFF3
:101E0000FFFFFFFFFFFFFFFFFFFFFFFFFFFFFFFFE2
:101E1000FFFFFFFFFFFFFFFFFFFFFFFFFFFFFFFFD2
:101E2000FFFFFFFFFFFFFFFFFFFFFFFFFFFFFFFFC2
:101E3000FFFFFFFFDFFF308CCE7B5DEFFBDE59CE77
:101E400096B5F39C30844D6B694AC739C639C6399B
:101E5000C639C639C639C639C639C639C639C6398A
:101E6000C639C639C639C639C639C639C639C6397A
:101E7000C639C639C639C639C639C639C639C6396A
:101E8000C639C639C639C639C639C639C639C6395A
:101E9000C639C639C639C639C639C639C639C6394A
:101EA000C639C639C639C639C639C639C639C6393A
:101EB000C639C6396D739EF7FFFFFFFFFFFFFFFFB7
:101EC000FFFFFFFFFFFFFFFFFFFFFFFFFFFFFFFF22
:101ED000FFFFFFFFFFFFFFFFFFFFFFFFFFFFFFFF12
:101EE000FFFFFFFFFFFFFFFFFFFFFFFFFFFFFFFF02
:101EF000FFFFFFFFFFFFFFFFFFFFFFFFFFFFFFFFF2
:101F0000FFFFFFFFFFFFFFFFFFFFFFFFFFFFFFFFE1
:101F1000FFFFFFFFFFFFFFFFFFFFFFFFFFFFFFFFD1
:101F2000FFFFFFFFFFFFFFFFFFFFFFFFFFFFFFFFC1
:101F3000FFFFFFFFFFFFFFFFFFFFFFFFFFFFFFFFB1
:101F4000FFFFFFFFFFFFFFFFFFFFFFFFFFFFFFFFA1
:101F5000FFFFFFFFFFFFFFFFFFFFFFFFFFFFFFFF91
:101F6000FFFFFFFFFFFFFFFFFFFFFFFFFFFFFFFF81
:101F7000FFFFFFFFFFFFFFFFFFFFFFFFFFFFFFFF71
:101F8000FFFFFFFFFFFFFFFFFFFFFFFFFFFFFFFF61
:101F9000FFFFFFFFFFFFFFFFFFFFFFFFFFFFFFFF51
:101FA000FFFFFFFFFFFFFFFFFFFFFFFFFFFFFFFF41
:101FB000FFFFFFFFFFFFFFFFFFFFFFFFFFFFFFFF31
:101FC000FFFF5DEF2C6314A5FFFFFFFFFFFFFFFF87
:101FD000FFFFFFFFFFFFFFFFFFFFDFFFFBDEF7BDA0
:101FE000F39CEF7BCB5AE739C639C639C639C639B7
:101FF000C639C639C639C639C639C639C639C639E9
:10200000C639C639C639C639C639C639C639C639D8
:10201000C639C639C639C639C639C639C639C639C8
:10202000C639C639C639C639C639C639C639C639B8
:10203000C639C639C639C639C639C639C639C639A8
:10204000C639C639C6398A52DBDEFFFFFFFFFFFF04
:10205000FFFFFFFFFFFFFFFFFFFFFFFFFFFFFFFF90
:10206000FFFFFFFFFFFFFFFFFFFFFFFFFFFFFFFF80
:10207000FFFFFFFFFFFFFFFFFFFFFFFFFFFFFFFF70
:10208000FFFFFFFFFFFFFFFFFFFFFFFFFFFFFFFF60
:10209000FFFFFFFFFFFFFFFFFFFFFFFFFFFFFFFF50
:1020A000FFFFFFFFFFFFFFFFFFFFFFFFFFFFFFFF40
:1020B000FFFFFFFFFFFFFFFFFFFFFFFFFFFFFFFF30
:1020C000FFFFFFFFFFFFFFFFFFFFFFFFFFFFFFFF20
:1020D000FFFFFFFFFFFFFFFFFFFFFFFFFFFFFFFF10
:1020E000FFFFFFFFFFFFFFFFFFFFFFFFFFFFFFFF00
:1020F000FFFFFFFFFFFFFFFFFFFFFFFFFFFFFFFFF0
:10210000FFFFFFFFFFFFFFFFFFFFFFFFFFFFFFFFDF
:10211000FFFFFFFFFFFFFFFFFFFFFFFFFFFFFFFFCF
:10212000FFFFFFFFFFFFFFFFFFFFFFFFFFFFFFFFBF
:10213000FFFFFFFFFFFFFFFFFFFFFFFFFFFFFFFFAF
:10214000FFFFFFFFFFFFFFFFFFFFFFFFFFFFFFFF9F
:10215000BAD6CB5A59CEFFFFFFFFFFFFFFFFFFFFAD
:10216000FFFFFFFFFFFFFFFFFFFFFFFFFFFFFFFF7F
:10217000FFFFFFFFFFFFDFFFBAD696B5518C0C6360
:10218000E739C639C639C639C639C639C639C63936
:10219000C639C639C639C639C639C639C639C63947
:1021A000C639C639C639C639C639C639C639C63937
:1021B000C639C639C639C639C639C639C639C63927
:1021C000C639C639C639C639C639C639C639C63917
:1021D000C639C639C639C6390742F7BDFFFFFFFF0A
:1021E000FFFFFFFFFFFFFFFFFFFFFFFFFFFFFFFFFF
:1021F000FFFFFFFFFFFFFFFFFFFFFFFFFFFFFFFFEF
:10220000FFFFFFFFFFFFFFFFFFFFFFFFFFFFFFFFDE
:10221000FFFFFFFFFFFFFFFFFFFFFFFFFFFFFFFFCE
:10222000FFFFFFFFFFFFFFFFFFFFFFFFFFFFFFFFBE
:10223000FFFFFFFFFFFFFFFFFFFFFFFFFFFFFFFFAE
:10224000FFFFFFFFFFFFFFFFFFFFFFFFFFFFFFFF9E
:10225000FFFFFFFFFFFFFFFFFFFFFFFFFFFFFFFF8E
:10226000FFFFFFFFFFFFFFFFFFFFFFFFFFFFFFFF7E
:10227000FFFFFFFFFFFFFFFFFFFFFFFFFFFFFFFF6E
:10228000FFFFFFFFFFFFFFFFFFFFFFFFFFFFFFFF5E
:10229000FFFFFFFFFFFFFFFFFFFFFFFFFFFFFFFF4E
:1022A000FFFFFFFFFFFFFFFFFFFFFFFFFFFFFFFF3E
:1022B000FFFFFFFFFFFFFFFFFFFFFFFFFFFFFFFF2E
:1022C000FFFFFFFFFFFFFFFFFFFFFFFFFFFFFFFF1E
:1022D000FFFFFFFFFFFFFFFFFFFFFFFFFFFFD7BD78
:1022E0000C5B1CE7FFFFFFFFFFFFFFFFFFFFFFFF90
:1022F000FFFFFFFFFFFFFFFFFFFFFFFFFFFFFFFFEE
:10230000FFFFFFFFFFFFFFFFFFFFFFFFFFFFFFFFDD
:10231000DFFFBAD654ADCF7B494AC639C639C63974
:10232000C639C639C639C639C639C639C639C639B5
:10233000C639C639C639C639C639C639C639C639A5
:10234000C639C639C639C639C639C639C639C63995
:10235000C639C639C639C639C639C639C639C63985
:10236000C639C639C639C639C639C739F39CFFFFE5
:10237000FFFFFFFFFFFFFFFFFFFFFFFFFFFFFFFF6D
:10238000FFFFFFFFFFFFFFFFFFFFFFFFFFFFFFFF5D
:10239000FFFFFFFFFFFFFFFFFFFFFFFFFFFFFFFF4D
:1023A000FFFFFFFFFFFFFFFFFFFFFFFFFFFFFFFF3D
:1023B000FFFFFFFFFFFFFFFFFFFFFFFFFFFFFFFF2D
:1023C000FFFFFFFFFFFFFFFFFFFFFFFFFFFFFFFF1D
:1023D000FFFFFFFFFFFFFFFFFFFFFFFFFFFFFFFF0D
:1023E000FFFFFFFFFFFFFFFFFFFFFFFFFFFFFFFFFD
:1023F000FFFFFFFFFFFFFFFFFFFFFFFFFFFFFFFFED
:10240000FFFFFFFFFFFFFFFFFFFFFFFFFFFFFFFFDC
:10241000FFFFFFFFFFFFFFFFFFFFFFFFFFFFFFFFCC
:10242000FFFFFFFFFFFFFFFFFFFFFFFFFFFFFFFFBC
:10243000FFFFFFFFFFFFFFFFFFFFFFFFFFFFFFFFAC
:10244000FFFFFFFFFFFFFFFFFFFFFFFFFFFFFFFF9C
:10245000FFFFFFFFFFFFFFFFFFFFFFFFFFFFFFFF8C
:10246000FFFFFFFFFFFFFFFFFFFFFFFFD39C905B1E
:102470001834F82BD95CBB859DB67EE7FFFFFFFFC4
:10248000FFFFFFFFFFFFFFFFFFFFFFFFFFFFFFFF5C
:10249000FFFFFFFFFFFFFFFFFFFFFFFFFFFFFFFF4C
:1024A000FFFFFFFFFFFFFFFFFFFF1CE796B5EF8376
:1024B000694AC639C639C639C639C639C639C63970
:1024C000C639C639C639C639C639C639C639C63914
:1024D000C639C639C639C639C639C639C639C63904
:1024E000C639C639C639C639C639C639C639C639F4
:1024F000C639C639C639C639C639C639C63910844F
:10250000DFFFFFFFFFFFFFFFFFFFFFFFFFFFFFFFFB
:10251000FFFFFFFFFFFFFFFFFFFFFFFFFFFFFFFFCB
:10252000FFFFFFFFFFFFFFFFFFFFFFFFFFFFFFFFBB
:10253000FFFFFFFFFFFFFFFFFFFFFFFFFFFFFFFFAB
:10254000FFFFFFFFFFFFFFFFFFFFFFFFFFFFFFFF9B
:10255000FFFFFFFFFFFFFFFFFFFFFFFFFFFFFFFF8B
:10256000FFFFFFFFFFFFFFFFFFFFFFFFFFFFFFFF7B
:10257000FFFFFFFFFFFFFFFFFFFFFFFFFFFFFFFF6B
:10258000FFFFFFFFFFFFFFFFFFFFFFFFFFFFFFFF5B
:10259000FFFFFFFFFFFFFFFFFFFFFFFFFFFFFFFF4B
:1025A000FFFFFFFFFFFFFFFFFFFFFFFFFFFFFFFF3B
:1025B000FFFFFFFFFFFFFFFFFFFFFFFFFFFFFFFF2B
:1025C000FFFFFFFFFFFFFFFFFFFFFFFFFFFFFFFF1B
:1025D000FFFFFFFFFFFFFFFFFFFFFFFFFFFFFFFF0B
:1025E000FFFFFFFFFFFFFFFFFFFFFFFFFFFFFFFFFB
:1025F000FFFFFFFFFFFFFFFFFFFF30841364F72B98
:10260000D723D723D723D723D723D72338341A6503
:102610001C96FDCEDFFFFFFFFFFFFFFFFFFFFFFF69
:10262000FFFFFFFFFFFFFFFFFFFFFFFFFFFFFFFFBA
:10263000FFFFFFFFFFFFFFFFFFFFFFFFFFFFFFFFAA
:10264000FFFFFBDE55AD8E730742C639C639C6396A
:10265000C639C639C639C639C639C639C639C63982
:10266000C639C639C639C639C639C639C639C63972
:10267000C639C639C639C639C639C639C639C63962
:10268000C639C639C639C639C639C639C639C63952
:102690006D6B9EF7FFFFFFFFFFFFFFFFFFFFFFFFD9
:1026A000FFFFFFFFFFFFFFFFFFFFFFFFFFFFFFFF3A
:1026B000FFFFFFFFFFFFFFFFFFFFFFFFFFFFFFFF2A
:1026C000FFFFFFFFFFFFFFFFFFFFFFFFFFFFFFFF1A
:1026D000FFFFFFFFFFFFFFFFFFFFFFFFFFFFFFFF0A
:1026E000FFFFFFFFFFFFFFFFFFFFFFFFFFFFFFFFFA
:1026F000FFFFFFFFFFFFFFFFFFFFFFFFFFFFFFFFEA
:10270000FFFFFFFFFFFFFFFFFFFFFFFFFFFFFFFFD9
:10271000FFFFFFFFFFFFFFFFFFFFFFFFFFFFFFFFC9
:10272000FFFFFFFFFFFFFFFFFFFFFFFFFFFFFFFFB9
:10273000FFFFFFFFFFFFFFFFFFFFFFFFFFFFFFFFA9
:10274000FFFFFFFFFFFFFFFFFFFFFFFFFFFFFFFF99
:10275000FFFFFFFFFFFFFFFFFFFFFFFFFFFFFFFF89
:10276000FFFFFFFFFFFFFFFFFFFFFFFFFFFFFFFF79
:10277000FFFFFFFFFFFFFFFFFFFFFFFFFFFFFFFF69
:10278000FFFFFFFFFFFFBEF78D735564D723D723ED
:10279000D723D723D723D723D723D723D723D72369
:1027A000D723D723F72BB954BB8DBDBEBFEFFFFF97
:1027B000FFFFFFFFFFFFFFFFFFFFFFFFFFFFFFFF29
:1027C000FFFFFFFFFFFFFFFFFFFFFFFFFFFFFFFF19
:1027D000FFFFFFFFFFFFFFFFDFFF59CE718C8A5223
:1027E000C639C639C639C639C639C639C639C639F1
:1027F000C639C639C639C639C639C639C639C639E1
:10280000C639C639C639C639C639C639C639C639D0
:10281000C639C639C639C639C639C639C639C639C0
:10282000C639EB5A7DEFFFFFFFFFFFFFFFFFFFFF02
:10283000FFFFFFFFFFFFFFFFFFFFFFFFFFFFFFFFA8
:10284000FFFFFFFFFFFFFFFFFFFFFFFFFFFFFFFF98
:10285000FFFFFFFFFFFFFFFFFFFFFFFFFFFFFFFF88
:10286000FFFFFFFFFFFFFFFFFFFFFFFFFFFFFFFF78
:10287000FFFFFFFFFFFFFFFFFFFFFFFFFFFFFFFF68
:10288000FFFFFFFFFFFFFFFFFFFFFFFFFFFFFFFF58
:10289000FFFFFFFFFFFFFFFFFFFFFFFFFFFFFFFF48
:1028A000FFFFFFFFFFFFFFFFFFFFFFFFFFFFFFFF38
:1028B000FFFFFFFFFFFFFFFFFFFFFFFFFFFFFFFF28
:1028C000FFFFFFFFFFFFFFFFFFFFFFFFFFFFFFFF18
:1028D000FFFFFFFFFFFFFFFFFFFFFFFFFFFFFFFF08
:1028E000FFFFFFFFFFFFFFFFFFFFFFFFFFFFFFFFF8
:1028F000FFFFFFFFFFFFFFFFFFFFFFFFFFFFFFFFE8
:10290000FFFFFFFFFFFFFFFFFFFFFFFFFFFFFFFFD7
:10291000FFFFFFFF9EF72C63765CD723D723D723D7
:10292000D723D723D723D723D723D723D723D723D7
:10293000D723D723D723D723D723D723D723994CDC
:102940009B85BDBEBFF7FFFFFFFFFFFFFFFFFFFF40
:10295000FFFFFFFFFFFFFFFFFFFFFFFFFFFFFFFF87
:10296000FFFFFFFFFFFFFFFFFFFFFFFFFFFFFFFF77
:10297000FBDE13A50C63C739C639C639C639C6395B
:10298000C639C639C639C639C639C639C639C6394F
:10299000C639C639C639C639C639C639C639C6393F
:1029A000C639C639C639C639C639C639C639C6392F
:1029B000C639C639AA523CE7FFFFFFFFFFFFFFFF02
:1029C000FFFFFFFFFFFFFFFFFFFFFFFFFFFFFFFF17
:1029D000FFFFFFFFFFFFFFFFFFFFFFFFFFFFFFFF07
:1029E000FFFFFFFFFFFFFFFFFFFFFFFFFFFFFFFFF7
:1029F000FFFFFFFFFFFFFFFFFFFFFFFFFFFFFFFFE7
:102A0000FFFFFFFFFFFFFFFFFFFFFFFFFFFFFFFFD6
:102A1000FFFFFFFFFFFFFFFFFFFFFFFFFFFFFFFFC6
:102A2000FFFFFFFFFFFFFFFFFFFFFFFFFFFFFFFFB6
:102A3000FFFFFFFFFFFFFFFFFFFFFFFFFFFFFFFFA6
:102A4000FFFFFFFFFFFFFFFFFFFFFFFFFFFFFFFF96
:102A5000FFFFFFFFFFFFFFFFFFFFFFFFFFFFFFFF86
:102A6000FFFFFFFFFFFFFFFFFFFFFFFFFFFFFFFF76
:102A7000FFFFFFFFFFFFFFFFFFFFFFFFFFFFFFFF66
:102A8000FFFFFFFFFFFFFFFFFFFFFFFFFFFFFFFF56
:102A9000FFFFFFFFFFFFFFFFFFFFFFFFFFFFFFFF46
:102AA000FFFF7DEF0B63975CD723D723D723D72373
:102AB000D723D723D723D723D723D723D723D72346
:102AC000D723D723D723D723D723D723D723D72336
:102AD000D723D723D723B954BB8DDDBEDFF7FFFF44
:102AE000FFFFFFFFFFFFFFFFFFFFFFFFFFFFFFFFF6
:102AF000FFFFFFFFFFFFFFFFFFFFFFFFFFFFFFFFE6
:102B0000FFFFFFFFFFFF3CE734AD2C63C739C63939
:102B1000C639C639C639C639C639C639C639C639BD
:102B2000C639C639C639C639C639C639C639C639AD
:102B3000C639C639C639C639C639C639C639C6399D
:102B4000C639C639C639494AFBDEFFFFFFFFFFFF22
:102B5000FFFFFFFFFFFFFFFFFFFFFFFFFFFFFFFF85
:102B6000FFFFFFFFFFFFFFFFFFFFFFFFFFFFFFFF75
:102B7000FFFFFFFFFFFFFFFFFFFFFFFFFFFFFFFF65
:102B8000FFFFFFFFFFFFFFFFFFFFFFFFFFFFFFFF55
:102B9000FFFFFFFFFFFFFFFFFFFFFFFFFFFFFFFF45
:102BA000FFFFFFFFFFFFFFFFFFFFFFFFFFFFFFFF35
:102BB000FFFFFFFFFFFFFFFFFFFFFFFFFFFFFFFF25
:102BC000FFFFFFFFFFFFFFFFFFFFFFFFFFFFFFFF15
:102BD000FFFFFFFFFFFFFFFFFFFFFFFFFFFFFFFF05
:102BE000FFFFFFFFFFFFFFFFFFFFFFFFFFFFFFFFF5
:102BF000FFFFFFFFFFFFFFFFFFFFFFFFFFFFFFFFE5
:102C0000FFFFFFFFFFFFFFFFFFFFFFFFFFFFFFFFD4
:102C1000FFFFFFFFFFFFFFFFFFFFFFFFFFFFFFFFC4
:102C2000FFFFFFFFFFFFFFFFFFFFFFFFFFFFFFFFB4
:102C30005DEFEB5A9754D723D723D723D723D72336
:102C4000D723D723D723D723D723D723D723D723B4
:102C5000D723D723D723D723D723D723D723D723A4
:102C6000D723D723D723D723D723D723F72BD95C31
:102C70001C9E3EDFFFFFFFFFFFFFFFFFFFFFFFFF89
:102C8000FFFFFFFFFFFFFFFFFFFFFFFFFFFFFFFF54
:102C9000FFFFFFFFFFFFFFFFFFFFFFFF5DEF34A51B
:102CA0000B63C639C639C639C639C639C639C639BD
:102CB000C639C639C639C639C639C639C639C6391C
:102CC000C639C639C639C639C639C639C639C6390C
:102CD000C639C639C639C639484ADBDEFFFFFFFFB1
:102CE000FFFFFFFFFFFFFFFFFFFFFFFFFFFFFFFFF4
:102CF000FFFFFFFFFFFFFFFFFFFFFFFFFFFFFFFFE4
:102D0000FFFFFFFFFFFFFFFFFFFFFFFFFFFFFFFFD3
:102D1000FFFFFFFFFFFFFFFFFFFFFFFFFFFFFFFFC3
:102D2000FFFFFFFFFFFFFFFFFFFFFFFFFFFFFFFFB3
:102D3000FFFFFFFFFFFFFFFFFFFFFFFFFFFFFFFFA3
:102D4000FFFFFFFFFFFFFFFFFFFFFFFFFFFFFFFF93
:102D5000FFFFFFFFFFFFFFFFFFFFFFFFFFFFFFFF83
:102D6000FFFFFFFFFFFFFFFFFFFFFFFFFFFFFFFF73
:102D7000FFFFFFFFFFFFFFFFFFFFFFFFFFFFFFFF63
:102D8000FFFFFFFFFFFFFFFFFFFFFFFFFFFFFFFF53
:102D9000FFFFFFFFFFFFFFFFFFFFFFFFFFFFFFFF43
:102DA000FFFFFFFFFFFFFFFFFFFFFFFFFFFFFFFF33
:102DB000FFFFFFFFFFFFFFFFFFFFFFFFFFFF5DEFD5
:102DC000CB5A9854D723D723D723D723D723D72316
:102DD000D723D723D723D723D723D723D723D72323
:102DE000D723D723D723D723D723D723D723D72313
:102DF000D723D723D723D723D723D723D723D72303
:102E0000D723D723583C7A7DBDBEBFF7FFFFFFFF16
:102E1000FFFFFFFFFFFFFFFFFFFFFFFFFFFFFFFFC2
:102E2000FFFFFFFFFFFFFFFFFFFFFFFFFFFFFFFFB2
:102E3000FFFF1CE7D29C8952C639C639C639C6394C
:102E4000C639C639C639C639C639C639C639C6398A
:102E5000C639C639C639C639C639C639C639C6397A
:102E6000C639C639C639C639C639284ADADEFFFF3F
:102E7000FFFFFFFFFFFFFFFFFFFFFFFFFFFFFFFF62
:102E8000FFFFFFFFFFFFFFFFFFFFFFFFFFFFFFFF52
:102E9000FFFFFFFFFFFFFFFFFFFFFFFFFFFFFFFF42
:102EA000FFFFFFFFFFFFFFFFFFFFFFFFFFFFFFFF32
:102EB000FFFFFFFFFFFFFFFFFFFFFFFFFFFFFFFF22
:102EC000FFFFFFFFFFFFFFFFFFFFFFFFFFFFFFFF12
:102ED000FFFFFFFFFFFFFFFFFFFFFFFFFFFFFFFF02
:102EE000FFFFFFFFFFFFFFFFFFFFFFFFFFFFFFFFF2
:102EF000FFFFFFFFFFFFFFFFFFFFFFFFFFFFFFFFE2
:102F0000FFFFFFFFFFFFFFFFFFFFFFFFFFFFFFFFD1
:102F1000FFFFFFFFFFFFFFFFFFFFFFFFFFFFFFFFC1
:102F2000FFFFFFFFFFFFFFFFFFFFFFFFFFFFFFFFB1
:102F3000FFFFFFFFFFFFFFFFFFFFFFFFFFFFFFFFA1
:102F4000FFFFFFFFFFFFFFFFFFFFFFFF3CE7CB5A45
:102F50007854D723D723D723D723D723D723D723CF
:102F6000D723D723D723D723D723D723D723D72391
:102F7000D723D723D723D723D723D723D723D72381
:102F8000D723D723D723D723D723D723D723D72371
:102F9000D723D723D723D723D723F72BD95C3CA616
:102FA0007EE7FFFFFFFFFFFFFFFFFFFFFFFFFFFFCA
:102FB000FFFFFFFFFFFFFFFFFFFFFFFFFFFFFFFF21
:102FC000FFFFFFFFFFFFFFFF79CE0F84E741C63908
:102FD000C639C639C639C639C639C639C639C639F9
:102FE000C639C639C639C639C639C639C639C639E9
:102FF000C639C639C639C639C639C6392842DADEB5
:10300000FFFFFFFFFFFFFFFFFFFFFFFFFFFFFFFFD0
:10301000FFFFFFFFFFFFFFFFFFFFFFFFFFFFFFFFC0
:10302000FFFFFFFFFFFFFFFFFFFFFFFFFFFFFFFFB0
:10303000FFFFFFFFFFFFFFFFFFFFFFFFFFFFFFFFA0
:10304000FFFFFFFFFFFFFFFFFFFFFFFFFFFFFFFF90
:10305000FFFFFFFFFFFFFFFFFFFFFFFFFFFFFFFF80
:10306000FFFFFFFFFFFFFFFFFFFFFFFFFFFFFFFF70
:10307000FFFFFFFFFFFFFFFFFFFFFFFFFFFFFFFF60
:10308000FFFFFFFFFFFFFFFFFFFFFFFFFFFFFFFF50
:10309000FFFFFFFFFFFFFFFFFFFFFFFFFFFFFFFF40
:1030A000FFFFFFFFFFFFFFFFFFFFFFFFFFFFFFFF30
:1030B000FFFFFFFFFFFFFFFFFFFFFFFFFFFFFFFF20
:1030C000FFFFFFFFFFFFFFFFFFFFFFFFFFFFFFFF10
:1030D000FFFFFFFFFFFFFFFFFFFF5DEFCB5A98549D
:1030E000D723D723D723D723D723D723D723D72310
:1030F000D723D723D723D723D723D723D723D72300
:10310000D723D723D723D723D723D723D723D723EF
:10311000D723D723D723D723D723D723D723D723DF
:10312000D723D723D723D723D723D723D723D723CF
:10313000D723B954FB953ED7FFFFFFFFFFFFFFFFEB
:10314000FFFFFFFFFFFFFFFFFFFFFFFFFFFFFFFF8F
:10315000FFFFFFFFFFFFFFFFFFFFFFFF9EF755ADE4
:10316000EB5AC639C639C639C639C639C639C63921
:10317000C639C639C639C639C639C639C639C63957
:10318000C639C639C639C639C639C639C639484AB4
:10319000FBDEFFFFFFFFFFFFFFFFFFFFFFFFFFFF64
:1031A000FFFFFFFFFFFFFFFFFFFFFFFFFFFFFFFF2F
:1031B000FFFFFFFFFFFFFFFFFFFFFFFFFFFFFFFF1F
:1031C000FFFFFFFFFFFFFFFFFFFFFFFFFFFFFFFF0F
:1031D000FFFFFFFFFFFFFFFFFFFFFFFFFFFFFFFFFF
:1031E000FFFFFFFFFFFFFFFFFFFFFFFFFFFFFFFFEF
:1031F000FFFFFFFFFFFFFFFFFFFFFFFFFFFFFFFFDF
:10320000FFFFFFFFFFFFFFFFFFFFFFFFFFFFFFFFCE
:10321000FFFFFFFFFFFFFFFFFFFFFFFFFFFFFFFFBE
:10322000FFFFFFFFFFFFFFFFFFFFFFFFFFFFFFFFAE
:10323000FFFFFFFFFFFFFFFFFFFFFFFFFFFFFFFF9E
:10324000FFFFFFFFFFFFFFFFFFFFFFFFFFFFFFFF8E
:10325000FFFFFFFFFFFFFFFFFFFFFFFFFFFFFFFF7E
:10326000FFFFFFFFFFFFFFFF9EF7EB5A9754D723A7
:10327000D723D723D723D723D723D723D723D7237E
:10328000D723D723D723D723D723D723D723D7236E
:10329000D723D723D723D723D723D723D723D7235E
:1032A000D723D723D723D723D723D723D723D7234E
:1032B000D723D723D723D723D723D723D723D7233E
:1032C000D723D723D723D7235844BB851ECFFFFF4F
:1032D000FFFFFFFFFFFFFFFFFFFFFFFFFFFFFFFFFE
:1032E000FFFFFFFFFFFFFFFFFFFFFFFFFFFFFFFFEE
:1032F000FFFFBAD630840842C639C639C639C63946
:10330000C639C639C639C639C639C639C639C639C5
:10331000C639C639C639C639C639C639C639C639B5
:10332000494A1CE7FFFFFFFFFFFFFFFFFFFFFFFF13
:10333000FFFFFFFFFFFFFFFFFFFFFFFFFFFFFFFF9D
:10334000FFFFFFFFFFFFFFFFFFFFFFFFFFFFFFFF8D
:10335000FFFFFFFFFFFFFFFFFFFFFFFFFFFFFFFF7D
:10336000FFFFFFFFFFFFFFFFFFFFFFFFFFFFFFFF6D
:10337000FFFFFFFFFFFFFFFFFFFFFFFFFFFFFFFF5D
:10338000FFFFFFFFFFFFFFFFFFFFFFFFFFFFFFFF4D
:10339000FFFFFFFFFFFFFFFFFFFFFFFFFFFFFFFF3D
:1033A000FFFFFFFFFFFFFFFFFFFFFFFFFFFFFFFF2D
:1033B000FFFFFFFFFFFFFFFFFFFFFFFFFFFFFFFF1D
:1033C000FFFFFFFFFFFFFFFFFFFFFFFFFFFFFFFF0D
:1033D000FFFFFFFFFFFFFFFFFFFFFFFFFFFFFFFFFD
:1033E000FFFFFFFFFFFFFFFFFFFFFFFFFFFFFFFFED
:1033F000FFFFFFFFFFFFBEF70C63975CD723D723C8
:10340000D723D723D723D723D723D723D723D723EC
:10341000D723D723D723D723D723D723D723D723DC
:10342000D723D723D723D723D723D723D723D723CC
:10343000D723D723D723D723D723D723D723D723BC
:10344000D723D723D723D723D723D723D723D723AC
:10345000D723D723D723D723D723D723D723583C02
:10346000BB8D3ED7FFFFFFFFFFFFFFFFFFFFFFFF0B
:10347000FFFFFFFFFFFFFFFFFFFFFFFFFFFFFFFF5C
:10348000FFFFFFFFFFFFBEF734ADAA52C639C639B2
:10349000C639C639C639C639C639C639C639C63934
:1034A000C639C639C639C639C639C639C639C63924
:1034B000C63969525DEFFFFFFFFFFFFFFFFFFFFF10
:1034C000FFFFFFFFFFFFFFFFFFFFFFFFFFFFFFFF0C
:1034D000FFFFFFFFFFFFFFFFFFFFFFFFFFFFFFFFFC
:1034E000FFFFFFFFFFFFFFFFFFFFFFFFFFFFFFFFEC
:1034F000FFFFFFFFFFFFFFFFFFFFFFFFFFFFFFFFDC
:10350000FFFFFFFFFFFFFFFFFFFFFFFFFFFFFFFFCB
:10351000FFFFFFFFFFFFFFFFFFFFFFFFFFFFFFFFBB
:10352000FFFFFFFFFFFFFFFFFFFFFFFFFFFFFFFFAB
:10353000FFFFFFFFFFFFFFFFFFFFFFFFFFFFFFFF9B
:10354000FFFFFFFFFFFFFFFFFFFFFFFFFFFFFFFF8B
:10355000FFFFFFFFFFFFFFFFFFFFFFFFFFFFFFFF7B
:10356000FFFFFFFFFFFFFFFFFFFFFFFFFFFFFFFF6B
:10357000FFFFFFFFFFFFFFFFFFFFFFFFFFFFFFFF5B
:10358000FFFFFFFFDFFF6D6B775CD723D723D723C8
:10359000D723D723D723D723D723D723D723D7235B
:1035A000D723D723D723D723D723D723D723D7234B
:1035B000D723D723D723D723D723D723D723D7233B
:1035C000D723D723D723D723D723D723D723D7232B
:1035D000D723D723D723D723D723D723D723D7231B
:1035E000D723D723D723D723D723D723D723D7230B
:1035F000D723D7237844DB955EDFFFFFFFFFFFFF74
:10360000FFFFFFFFFFFFFFFFFFFFFFFFFFFFFFFFCA
:10361000FFFFFFFFFFFFFFFFFFFFFFFF38C66D6BE0
:10362000C739C639C639C639C639C639C639C639A1
:10363000C639C639C639C639C639C639C639C63992
:10364000C639C639CB5A9EF7FFFFFFFFFFFFFFFFCA
:10365000FFFFFFFFFFFFFFFFFFFFFFFFFFFFFFFF7A
:10366000FFFFFFFFFFFFFFFFFFFFFFFFFFFFFFFF6A
:10367000FFFFFFFFFFFFFFFFFFFFFFFFFFFFFFFF5A
:10368000FFFFFFFFFFFFFFFFFFFFFFFFFFFFFFFF4A
:10369000FFFFFFFFFFFFFFFFFFFFFFFFFFFFFFFF3A
:1036A000FFFFFFFFFFFFFFFFFFFFFFFFFFFFFFFF2A
:1036B000FFFFFFFFFFFFFFFFFFFFFFFFFFFFFFFF1A
:1036C000FFFFFFFFFFFFFFFFFFFFFFFFFFFFFFFF0A
:1036D000FFFFFFFFFFFFFFFFFFFFFFFFFFFFFFFFFA
:1036E000FFFFFFFFFFFFFFFFFFFFFFFFFFFFFFFFEA
:1036F000FFFFFFFFFFFFFFFFFFFFFFFFFFFFFFFFDA
:10370000FFFFFFFFFFFFFFFFFFFFFFFFFFFFFFFFC9
:10371000FFFFFFFFEF7B5564D723D723D723D723A2
:10372000D723D723D723D723D723D723D723D723C9
:10373000D723D723D723D723D723D723D723D723B9
:10374000D723D723D723D723D723D723D723D723A9
:10375000D723D723D723D723D723D723D723D72399
:10376000D723D723D723D723D723D723D723D72389
:10377000D723D723D723D723D723D723D723D72379
:10378000D723D723D723D723D723994C1C9E9FE732
:10379000FFFFFFFFFFFFFFFFFFFFFFFFFFFFFFFF39
:1037A000FFFFFFFFFFFFFFFFFFFFFFFFFFFFFFFF29
:1037B0001BE7518C0742C639C639C639C639C639E6
:1037C000C639C639C639C639C639C639C639C63901
:1037D000C639C639C6392C63DFFFFFFFFFFFFFFF85
:1037E000FFFFFFFFFFFFFFFFFFFFFFFFFFFFFFFFE9
:1037F000FFFFFFFFFFFFFFFFFFFFFFFFFFFFFFFFD9
:10380000FFFFFFFFFFFFFFFFFFFFFFFFFFFFFFFFC8
:10381000FFFFFFFFFFFFFFFFFFFFFFFFFFFFFFFFB8
:10382000FFFFFFFFFFFFFFFFFFFFFFFFFFFFFFFFA8
:10383000FFFFFFFFFFFFFFFFFFFFFFFFFFFFFFFF98
:10384000FFFFFFFFFFFFFFFFFFFFFFFFFFFFFFFF88
:10385000FFFFFFFFFFFFFFFFFFFFFFFFFFFFFFFF78
:10386000FFFFFFFFFFFFFFFFFFFFFFFFFFFFFFFF68
:10387000FFFFFFFFFFFFFFFFFFFFFFFFFFFFFFFF58
:10388000FFFFFFFFFFFFFFFFFFFFFFFFFFFFFFFF48
:10389000FFFFFFFFFFFFFFFFFFFFFFFFFFFFFFFF38
:1038A000FFFF92941364D723D723D723D723D7239B
:1038B000D723D723D723D723D723D723D723D72338
:1038C000D723D723D723D723D723D723D723D72328
:1038D000D723D723D723D723D723D723D723D72318
:1038E000D723D723D723D723D723D723D723D72308
:1038F000D723D723D723D723D723D723D723D723F8
:10390000D723D723D723D723D723D723D723D723E7
:10391000D723D723D723D723D723D723D723D723D7
:10392000F95C7CAEDFF7FFFFFFFFFFFFFFFFFFFF4C
:10393000FFFFFFFFFFFFFFFFFFFFFFFFFFFFFFFF97
:10394000FFFFFFFF7DEFD39C284AC639C639C63931
:10395000C639C639C639C639C639C639C639C6396F
:10396000C639C639C639C639AE7BFFFFFFFFFFFF38
:10397000FFFFFFFFFFFFFFFFFFFFFFFFFFFFFFFF57
:10398000FFFFFFFFFFFFFFFFFFFFFFFFFFFFFFFF47
:10399000FFFFFFFFFFFFFFFFFFFFFFFFFFFFFFFF37
:1039A000FFFFFFFFFFFFFFFFFFFFFFFFFFFFFFFF27
:1039B000FFFFFFFFFFFFFFFFFFFFFFFFFFFFFFFF17
:1039C000FFFFFFFFFFFFFFFFFFFFFFFFFFFFFFFF07
:1039D000FFFFFFFFFFFFFFFFFFFFFFFFFFFFFFFFF7
:1039E000FFFFFFFFFFFFFFFFFFFFFFFFFFFFFFFFE7
:1039F000FFFFFFFFFFFFFFFFFFFFFFFFFFFFFFFFD7
:103A0000FFFFFFFFFFFFFFFFFFFFFFFFFFFFFFFFC6
:103A1000FFFFFFFFFFFFFFFFFFFFFFFFFFFFFFFFB6
:103A2000FFFFFFFFFFFFFFFFFFFFFFFFFFFFFFFFA6
:103A300096B5905BF72BD723D723D723D723D7234C
:103A4000D723D723D723D723D723D723D723D723A6
:103A5000D723D723D723D723D723D723D723D72396
:103A6000D723D723D723D723D723D723D723D72386
:103A7000D723D723D723D723D723D723D723D72376
:103A8000D723D723D723D723D723D723D723D72366
:103A9000D723D723D723D723D723D723D723D72356
:103AA000D723D723D723D723D723D723D723D72346
:103AB000D723D72318347A7D1ECFFFFFFFFFFFFFE8
:103AC000FFFFFFFFFFFFFFFFFFFFFFFFFFFFFFFF06
:103AD000FFFFFFFFFFFFFFFFBEF754AD6952C6397E
:103AE000C639C639C639C639C639C639C639C639DE
:103AF000C639C639C639C639C639B294FFFFFFFF89
:103B0000FFFFFFFFFFFFFFFFFFFFFFFFFFFFFFFFC5
:103B1000FFFFFFFFFFFFFFFFFFFFFFFFFFFFFFFFB5
:103B2000FFFFFFFFFFFFFFFFFFFFFFFFFFFFFFFFA5
:103B3000FFFFFFFFFFFFFFFFFFFFFFFFFFFFFFFF95
:103B4000FFFFFFFFFFFFFFFFFFFFFFFFFFFFFFFF85
:103B5000FFFFFFFFFFFFFFFFFFFFFFFFFFFFFFFF75
:103B6000FFFFFFFFFFFFFFFFFFFFFFFFFFFFFFFF65
:103B7000FFFFFFFFFFFFFFFFFFFFFFFFFFFFFFFF55
:103B8000FFFFFFFFFFFFFFFFFFFFFFFFFFFFFFFF45
:103B9000FFFFFFFFFFFFFFFFFFFFFFFFFFFFFFFF35
:103BA000FFFFFFFFFFFFFFFFFFFFFFFFFFFFFFFF25
:103BB000FFFFFFFFFFFFFFFFFFFFFFFFFFFF79CECC
:103BC000EB5A3DDFBB8D1834D723D723D723D72318
:103BD000D723D723D723D723D723D723D723D72315
:103BE000D723D723D723D723D723D723D723D72305
:103BF000D723D723D723D723D723D723D723D723F5
:103C0000D723D723D723D723D723D723D723D723E4
:103C1000D723D723D723D723D723D723D723D723D4
:103C2000D723D723D723D723D723D723D723D723C4
:103C3000D723D723D723D723D723D723D723D723B4
:103C4000D723D723D723D723D72378441C9E9FEF8E
:103C5000FFFFFFFFFFFFFFFFFFFFFFFFFFFFFFFF74
:103C6000FFFFFFFFFFFFFFFFFFFFFFFFFFFFB6B5F7
:103C7000AA52C639C639C639C639C639C639C6394F
:103C8000C639C639C639C639C639C639B6B5FFFFD1
:103C9000FFFFFFFFFFFFFFFFFFFFFFFFFFFFFFFF34
:103CA000FFFFFFFFFFFFFFFFFFFFFFFFFFFFFFFF24
:103CB000FFFFFFFFFFFFFFFFFFFFFFFFFFFFFFFF14
:103CC000FFFFFFFFFFFFFFFFFFFFFFFFFFFFFFFF04
:103CD000FFFFFFFFFFFFFFFFFFFFFFFFFFFFFFFFF4
:103CE000FFFFFFFFFFFFFFFFFFFFFFFFFFFFFFFFE4
:103CF000FFFFFFFFFFFFFFFFFFFFFFFFFFFFFFFFD4
:103D0000FFFFFFFFFFFFFFFFFFFFFFFFFFFFFFFFC3
:103D1000FFFFFFFFFFFFFFFFFFFFFFFFFFFFFFFFB3
:103D2000FFFFFFFFFFFFFFFFFFFFFFFFFFFFFFFFA3
:103D3000FFFFFFFFFFFFFFFFFFFFFFFFFFFFFFFF93
:103D4000FFFFFFFFFFFFFFFFFFFFFFFF3CE7AA5260
:103D50003CE7FFFFFFFFBFF7FB953834D723D7239E
:103D6000D723D723D723D723D723D723D723D72383
:103D7000D723D723D723D723D723D723D723D72373
:103D8000D723D723D723D723D723D723D723D72363
:103D9000D723D723D723D723D723D723D723D72353
:103DA000D723D723D723D723D723D723D723D72343
:103DB000D723D723D723D723D723D723D723D72333
:103DC000D723D723D723D723D723D723D723D72323
:103DD000D723D723D723D723D723D723D723F72BEB
:103DE0003A6DFDC6FFFFFFFFFFFFFFFFFFFFFFFF75
:103DF000FFFFFFFFFFFFFFFFFFFFFFFFFFFFFFFFD3
:103E0000FFFFB6B5AA52C639C639C639C639C63952
:103E1000C639C639C639C639C639C639E7399AD618
:103E2000FFFFFFFFFFFFFFFFFFFFFFFFFFFFFFFFA2
:103E3000FFFFFFFFFFFFFFFFFFFFFFFFFFFFFFFF92
:103E4000FFFFFFFFFFFFFFFFFFFFFFFFFFFFFFFF82
:103E5000FFFFFFFFFFFFFFFFFFFFFFFFFFFFFFFF72
:103E6000FFFFFFFFFFFFFFFFFFFFFFFFFFFFFFFF62
:103E7000FFFFFFFFFFFFFFFFFFFFFFFFFFFFFFFF52
:103E8000FFFFFFFFFFFFFFFFFFFFFFFFFFFFFFFF42
:103E9000FFFFFFFFFFFFFFFFFFFFFFFFFFFFFFFF32
:103EA000FFFFFFFFFFFFFFFFFFFFFFFFFFFFFFFF22
:103EB000FFFFFFFFFFFFFFFFFFFFFFFFFFFFFFFF12
:103EC000FFFFFFFFFFFFFFFFFFFFFFFFFFFFFFFF02
:103ED000FFFFFFFFFFFFFFFFFFFFBEF7EB6279CEA3
:103EE000FFFFFFFFFFFFFFFFFFFFDFF71C9E383CD8
:103EF000D723D723D723D723D723D723D723D723F2
:103F0000D723D723D723D723D723D723D723D723E1
:103F1000D723D723D723D723D723D723D723D723D1
:103F2000D723D723D723D723D723D723D723D723C1
:103F3000D723D723D723D723D723D723D723D723B1
:103F4000D723D723D723D723D723D723D723D723A1
:103F5000D723D723D723D723D723D723D723D72391
:103F6000D723D723D723D723D723D723D723D72381
:103F7000D723D72378441C9EBFF7FFFFFFFFFFFF27
:103F8000FFFFFFFFFFFFFFFFFFFFFFFFFFFFFFFF41
:103F9000FFFFFFFFFFFFD7BDCA5AC639C639C63972
:103FA000C639C639C639C639C639C639C639494A85
:103FB0005DEFFFFFFFFFFFFFFFFFFFFFFFFFFFFFC3
:103FC000FFFFFFFFFFFFFFFFFFFFFFFFFFFFFFFF01
:103FD000FFFFFFFFFFFFFFFFFFFFFFFFFFFFFFFFF1
:103FE000FFFFFFFFFFFFFFFFFFFFFFFFFFFFFFFFE1
:103FF000FFFFFFFFFFFFFFFFFFFFFFFFFFFFFFFFD1
:10400000FFFFFFFFFFFFFFFFFFFFFFFFFFFFFFFFC0
:10401000FFFFFFFFFFFFFFFFFFFFFFFFFFFFFFFFB0
:10402000FFFFFFFFFFFFFFFFFFFFFFFFFFFFFFFFA0
:10403000FFFFFFFFFFFFFFFFFFFFFFFFFFFFFFFF90
:10404000FFFFFFFFFFFFFFFFFFFFFFFFFFFFFFFF80
:10405000FFFFFFFFFFFFFFFFFFFFFFFFFFFFFFFF70
:10406000FFFFFFFFFFFFFFFFFFFFEF7B34A5FFFF19
:10407000FFFFFFFFFFFFFFFFFFFFFFFFFFFFDFF778
:104080001C9E3834D723D723D723D723D723D7232E
:10409000D723D723D723D723D723D723D723D72350
:1040A000D723D723D723D723D723D723D723D72340
:1040B000D723D723D723D723D723D723D723D72330
:1040C000D723D723D723D723D723D723D723D72320
:1040D000D723D723D723D723D723D723D723D72310
:1040E000D723D723D723D723D723D723D723D72300
:1040F000D723D723D723D723D723D723D723D723F0
:10410000D723D723D723D723F82B7A7D3ED7FFFF9A
:10411000FFFFFFFFFFFFFFFFFFFFFFFFFFFFFFFFAF
:10412000FFFFFFFFFFFFFFFFFFFFB6B58952C63954
:10413000C639C639C639C639C639C639C639C63987
:104140002C63DFFFFFFFFFFFFFFFFFFFFFFFFFFF0E
:10415000FFFFFFFFFFFFFFFFFFFFFFFFFFFFFFFF6F
:10416000FFFFFFFFFFFFFFFFFFFFFFFFFFFFFFFF5F
:10417000FFFFFFFFFFFFFFFFFFFFFFFFFFFFFFFF4F
:10418000FFFFFFFFFFFFFFFFFFFFFFFFFFFFFFFF3F
:10419000FFFFFFFFFFFFFFFFFFFFFFFFFFFFFFFF2F
:1041A000FFFFFFFFFFFFFFFFFFFFFFFFFFFFFFFF1F
:1041B000FFFFFFFFFFFFFFFFFFFFFFFFFFFFFFFF0F
:1041C000FFFFFFFFFFFFFFFFFFFFFFFFFFFFFFFFFF
:1041D000FFFFFFFFFFFFFFFFFFFFFFFFFFFFFFFFEF
:1041E000FFFFFFFFFFFFFFFFFFFFFFFFFFFFFFFFDF
:1041F000FFFFFFFFFFFFFFFF55ADEF7BFFFFFFFF5F
:10420000FFFFFFFFFFFFFFFFFFFFFFFFFFFFFFFFBE
:10421000FFFFDFF7FB951834D723D723D723D72306
:10422000D723D723D723D723D723D723D723D723BE
:10423000D723D723D723D723D723D723D723D723AE
:10424000D723D723D723D723D723D723D723D7239E
:10425000D723D723D723D723D723D723D723D7238E
:10426000D723D723D723D723D723D723D723D7237E
:10427000D723D723D723D723D723D723D723D7236E
:10428000D723D723D723D723D723D723D723D7235E
:10429000D723D723D723D723D723D723D723D95C13
:1042A000BDBEFFFFFFFFFFFFFFFFFFFFFFFFFFFFA1
:1042B000FFFFFFFFFFFFFFFFFFFFFFFFDFFF55AD2A
:1042C000494AC639C639C639C639C639C639C63962
:1042D000C639518CFFFFFFFFFFFFFFFFFFFFFFFF0E
:1042E000FFFFFFFFFFFFFFFFFFFFFFFFFFFFFFFFDE
:1042F000FFFFFFFFFFFFFFFFFFFFFFFFFFFFFFFFCE
:10430000FFFFFFFFFFFFFFFFFFFFFFFFFFFFFFFFBD
:10431000FFFFFFFFFFFFFFFFFFFFFFFFFFFFFFFFAD
:10432000FFFFFFFFFFFFFFFFFFFFFFFFFFFFFFFF9D
:10433000FFFFFFFFFFFFFFFFFFFFFFFFFFFFFFFF8D
:10434000FFFFFFFFFFFFFFFFFFFFFFFFFFFFFFFF7D
:10435000FFFFFFFFFFFFFFFFFFFFFFFFFFFFFFFF6D
:10436000FFFFFFFFFFFFFFFFFFFFFFFFFFFFFFFF5D
:10437000FFFFFFFFFFFFFFFFFFFFFFFFFFFFFFFF4D
:10438000FFFFFFFFFFFF9AD6AA72AAEAD7F5FFFF49
:10439000FFFFFFFFFFFFFFFFFFFFFFFFFFFFFFFF2D
:1043A000FFFFFFFFFFFFBFEFDB8DF82BD723D723E6
:1043B000D723D723D723D723D723D723D723D7232D
:1043C000D723D723D723D723D723D723D723D7231D
:1043D000D723D723D723D723D723D723D723D7230D
:1043E000D723D723D723D723D723D723D723D723FD
:1043F000D723D723D723D723D723D723D723D723ED
:10440000D723D723D723D723D723D723D723D723DC
:10441000D723D723D723D723D723D723D723D723CC
:10442000D723D723D723D723D723D723D723D723BC
:10443000D72358443C9EDFF7FFFFFFFFFFFFFFFF3E
:10444000FFFFFFFFFFFFFFFFFFFFFFFFFFFFFFFF7C
:10445000BEF7F39C0842C639C639C639C639C639D3
:10446000C639C639F7BDFFFFFFFFFFFFFFFFFFFFA4
:10447000FFFFFFFFFFFFFFFFFFFFFFFFFFFFFFFF4C
:10448000FFFFFFFFFFFFFFFFFFFFFFFFFFFFFFFF3C
:10449000FFFFFFFFFFFFFFFFFFFFFFFFFFFFFFFF2C
:1044A000FFFFFFFFFFFFFFFFFFFFFFFFFFFFFFFF1C
:1044B000FFFFFFFFFFFFFFFFFFFFFFFFFFFFFFFF0C
:1044C000FFFFFFFFFFFFFFFFFFFFFFFFFFFFFFFFFC
:1044D000FFFFFFFFFFFFFFFFFFFFFFFFFFFFFFFFEC
:1044E000FFFFFFFFFFFFFFFFFFFFFFFFFFFFFFFFDC
:1044F000FFFFFFFFFFFFFFFFFFFFFFFFFFFFFFFFCC
:10450000FFFFFFFFFFFFFFFFFFFFFFFFFFFFFFFFBB
:10451000FFFFFFFF9EF7AA5AAAE2C7E1C7E14DEBF2
:10452000FBFEFFFFFFFFFFFFFFFFFFFFFFFFFFFFA0
:10453000FFFFFFFFFFFFFFFFFFFF9FEF7A7DF72BDE
:10454000D723D723D723D723D723D723D723D7239B
:10455000D723D723D723D723D723D723D723D7238B
:10456000D723D723D723D723D723D723D723D7237B
:10457000D723D723D723D723D723D723D723D7236B
:10458000D723D723D723D723D723D723D723D7235B
:10459000D723D723D723D723D723D723D723D7234B
:1045A000D723D723D723D723D723D723D723D7233B
:1045B000D723D723D723D723D723D723D723D7232B
:1045C000D723D723D7231834BB859FE7FFFFFFFFEF
:1045D000FFFFFFFFFFFFFFFFFFFFFFFFFFFFFFFFEB
:1045E000FFFFFFFF7DEF508CC739C639C639C6398A
:1045F000C639C63908421CE7FFFFFFFFFFFFFFFF78
:10460000FFFFFFFFFFFFFFFFFFFFFFFFFFFFFFFFBA
:10461000FFFFFFFFFFFFFFFFFFFFFFFFFFFFFFFFAA
:10462000FFFFFFFFFFFFFFFFFFFFFFFFFFFFFFFF9A
:10463000FFFFFFFFFFFFFFFFFFFFFFFFFFFFFFFF8A
:10464000FFFFFFFFFFFFFFFFFFFFFFFFFFFFFFFF7A
:10465000FFFFFFFFFFFFFFFFFFFFFFFFFFFFFFFF6A
:10466000FFFFFFFFFFFFFFFFFFFFFFFFFFFFFFFF5A
:10467000FFFFFFFFFFFFFFFFFFFFFFFFFFFFFFFF4A
:10468000FFFFFFFFFFFFFFFFFFFFFFFFFFFFFFFF3A
:10469000FFFFFFFFFFFFFFFFFFFFFFFFFFFFFFFF2A
:1046A000FFFFFFFFCF7B4DD3C7E1C7E1C7E1C7E104
:1046B000E7E191F4BEFFFFFFFFFFFFFFFFFFFFFFFA
:1046C000FFFFFFFFFFFFFFFFFFFFFFFFFFFF5EDFBB
:1046D0001A65D723D723D723D723D723D723D72385
:1046E000D723D723D723D723D723D723D723D723FA
:1046F000D723D723D723D723D723D723D723D723EA
:10470000D723D723D723D723D723D723D723D723D9
:10471000D723D723D723D723D723D723D723D723C9
:10472000D723D723D723D723D723D723D723D723B9
:10473000D723D723D723D723D723D723D723D723A9
:10474000D723D723D723D723D723D723D723D72399
:10475000D723D723D723D723D723F72B5A753EDF69
:10476000FFFFFFFFFFFFFFFFFFFFFFFFFFFFFFFF59
:10477000FFFFFFFFFFFFFFFFFBDE8D73C639C6396A
:10478000C639C639C6390C63FFFFFFFFFFFFFFFFC5
:10479000FFFFFFFFFFFFFFFFFFFFFFFFFFFFFFFF29
:1047A000FFFFFFFFFFFFFFFFFFFFFFFFFFFFFFFF19
:1047B000FFFFFFFFFFFFFFFFFFFFFFFFFFFFFFFF09
:1047C000FFFFFFFFFFFFFFFFFFFFFFFFFFFFFFFFF9
:1047D000FFFFFFFFFFFFFFFFFFFFFFFFFFFFFFFFE9
:1047E000FFFFFFFFFFFFFFFFFFFFFFFFFFFFFFFFD9
:1047F000FFFFFFFFFFFFFFFFFFFFFFFFFFFFFFFFC9
:10480000FFFFFFFFFFFFFFFFFFFFFFFFFFFFFFFFB8
:10481000FFFFFFFFFFFFFFFFFFFFFFFFFFFFFFFFA8
:10482000FFFFFFFFFFFFFFFFFFFFFFFFFFFFFFFF98
:10483000FFFF95B52C9BC7E1C7E1C7E1C7E1C7E121
:10484000C7E1C7E169EAB6F5FFFFFFFFFFFFFFFF22
:10485000FFFFFFFFFFFFFFFFFFFFFFFFFFFFFFFF68
:10486000FFFFDDC6994CD723D723D723D723D723E0
:10487000D723D723D723D723D723D723D723D72368
:10488000D723D723D723D723D723D723D723D72358
:10489000D723D723D723D723D723D723D723D72348
:1048A000D723D723D723D723D723D723D723D72338
:1048B000D723D723D723D723D723D723D723D72328
:1048C000D723D723D723D723D723D723D723D72318
:1048D000D723D723D723D723D723D723D723D72308
:1048E000D723D723D723D723D723D723D723D723F8
:1048F0001A65FDCEFFFFFFFFFFFFFFFFFFFFFFFF7A
:10490000FFFFFFFFFFFFFFFFFFFFFFFF38C6AA52B9
:10491000C639C639C639C639B294FFFFFFFFFFFF5B
:10492000FFFFFFFFFFFFFFFFFFFFFFFFFFFFFFFF97
:10493000FFFFFFFFFFFFFFFFFFFFFFFFFFFFFFFF87
:10494000FFFFFFFFFFFFFFFFFFFFFFFFFFFFFFFF77
:10495000FFFFFFFFFFFFFFFFFFFFFFFFFFFFFFFF67
:10496000FFFFFFFFFFFFFFFFFFFFFFFFFFFFFFFF57
:10497000FFFFFFFFFFFFFFFFFFFFFFFFFFFFFFFF47
:10498000FFFFFFFFFFFFFFFFFFFFFFFFFFFFFFFF37
:10499000FFFFFFFFFFFFFFFFFFFFFFFFFFFFFFFF27
:1049A000FFFFFFFFFFFFFFFFFFFFFFFFFFFFFFFF17
:1049B000FFFFFFFFFFFFFFFFFFFFFFFFFFFFFFFF07
:1049C0001CE7AA6248E2C7E1C7E1C7E1C7E1C7E166
:1049D000C7E1C7E1C7E1C7E14CEBFBFEFFFFFFFF0B
:1049E000FFFFFFFFFFFFFFFFFFFFFFFFFFFFFFFFD7
:1049F000FFFFFFFFFFFF5CA63834D723D723D72361
:104A0000D723D723D723D723D723D723D723D723D6
:104A1000D723D723D723D723D723D723D723D723C6
:104A2000D723D723D723D723D723D723D723D723B6
:104A3000D723D723D723D723D723D723D723D723A6
:104A4000D723D723D723D723D723D723D723D72396
:104A5000D723D723D723D723D723D723D723D72386
:104A6000D723D723D723D723D723D723D723D72376
:104A7000D723D723D723D723D723D723D723D72366
:104A8000D723D723D95CDDC6FFFFFFFFFFFFFFFF62
:104A9000FFFFFFFFFFFFFFFFFFFFFFFFFFFFDFFF46
:104AA00034A50842C639C639C73979CEFFFFFFFFA2
:104AB000FFFFFFFFFFFFFFFFFFFFFFFFFFFFFFFF06
:104AC000FFFFFFFFFFFFFFFFFFFFFFFFFFFFFFFFF6
:104AD000FFFFFFFFFFFFFFFFFFFFFFFFFFFFFFFFE6
:104AE000FFFFFFFFFFFFFFFFFFFFFFFFFFFFFFFFD6
:104AF000FFFFFFFFFFFFFFFFFFFFFFFFFFFFFFFFC6
:104B0000FFFFFFFFFFFFFFFFFFFFFFFFFFFFFFFFB5
:104B1000FFFFFFFFFFFFFFFFFFFFFFFFFFFFFFFFA5
:104B2000FFFFFFFFFFFFFFFFFFFFFFFFFFFFFFFF95
:104B3000FFFFFFFFFFFFFFFFFFFFFFFFFFFFFFFF85
:104B4000FFFFFFFFFFFFFFFFFFFFFFFFFFFFFFFF75
:104B50002C630BDBC7E1C7E1C7E1C7E1C7E1C7E1F0
:104B6000C7E1C7E1C7E1C7E1C7E1E7E1D3F4DFFF90
:104B7000FFFFFFFFFFFFFFFFFFFFFFFFFFFFFFFF45
:104B8000FFFFFFFFFFFFFFFFBFF79B7DF72BD72343
:104B9000D723D723D723D723D723D723D723D72345
:104BA000D723D723D723D723D723D723D723D72335
:104BB000D723D723D723D723D723D723D723D72325
:104BC000D723D723D723D723D723D723D723D72315
:104BD000D723D723D723D723D723D723D723D72305
:104BE000D723D723D723D723D723D723D723D723F5
:104BF000D723D723D723D723D723D723D723D723E5
:104C0000D723D723D723D723D723D723D723D723D4
:104C1000D723D723D723D723B954BDBEFFFFFFFF28
:104C2000FFFFFFFFFFFFFFFFFFFFFFFFFFFFFFFF94
:104C3000FFFF5DEFCF7BC639C6398A52BEF7FFFF53
:104C4000FFFFFFFFFFFFFFFFFFFFFFFFFFFFFFFF74
:104C5000FFFFFFFFFFFFFFFFFFFFFFFFFFFFFFFF64
:104C6000FFFFFFFFFFFFFFFFFFFFFFFFFFFFFFFF54
:104C7000FFFFFFFFFFFFFFFFFFFFFFFFFFFFFFFF44
:104C8000FFFFFFFFFFFFFFFFFFFFFFFFFFFFFFFF34
:104C9000FFFFFFFFFFFFFFFFFFFFFFFFFFFFFFFF24
:104CA000FFFFFFFFFFFFFFFFFFFFFFFFFFFFFFFF14
:104CB000FFFFFFFFFFFFFFFFFFFFFFFFFFFFFFFF04
:104CC000FFFFFFFFFFFFFFFFFFFFFFFFFFFFFFFFF4
:104CD000FFFFFFFFFFFFFFFFFFFFFFFFFFFF34A509
:104CE000EF9B08E2C7E1C7E1C7E1C7E1C7E1C7E160
:104CF000C7E1C7E1C7E1C7E1C7E1C7E1C7E1CAEA68
:104D000079FEFFFFFFFFFFFFFFFFFFFFFFFFFFFF3A
:104D1000FFFFFFFFFFFFFFFFFFFFFFFF3ED7D95C55
:104D2000D723D723D723D723D723D723D723D723B3
:104D3000D723D723D723D723D723D723D723D723A3
:104D4000D723D723D723D723D723D723D723D72393
:104D5000D723D723D723D723D723D723D723D72383
:104D6000D723D723D723D723D723D723D723D72373
:104D7000D723D723D723D723D723D723D723D72363
:104D8000D723D723D723D723D723D723D723D72353
:104D9000D723D723D723D723D723D723D723D72343
:104DA000D723D723D723D723D723D723994CBDBEC7
:104DB000FFFFFFFFFFFFFFFFFFFFFFFFFFFFFFFF03
:104DC000FFFFFFFFFFFF38CE8A52C639518CFFFF2D
:104DD000FFFFFFFFFFFFFFFFFFFFFFFFFFFFFFFFE3
:104DE000FFFFFFFFFFFFFFFFFFFFFFFFFFFFFFFFD3
:104DF000FFFFFFFFFFFFFFFFFFFFFFFFFFFFFFFFC3
:104E0000FFFFFFFFFFFFFFFFFFFFFFFFFFFFFFFFB2
:104E1000FFFFFFFFFFFFFFFFFFFFFFFFFFFFFFFFA2
:104E2000FFFFFFFFFFFFFFFFFFFFFFFFFFFFFFFF92
:104E3000FFFFFFFFFFFFFFFFFFFFFFFFFFFFFFFF82
:104E4000FFFFFFFFFFFFFFFFFFFFFFFFFFFFFFFF72
:104E5000FFFFFFFFFFFFFFFFFFFFFFFFFFFFFFFF62
:104E6000FFFFFFFFFFFFFFFFFFFFFFFF1CE7CA5A27
:104E7000BEF7DBFE89EAC7E1C7E1C7E1C7E1C7E1E9
:104E8000C7E1C7E1C7E1C7E1C7E1C7E1C7E1C7E1E2
:104E9000E7E130F49EFFFFFFFFFFFFFFFFFFFFFF93
:104EA000FFFFFFFFFFFFFFFFFFFFFFFFFFFFFFFF12
:104EB0007CAE3834D723D723D723D723D723D72380
:104EC000D723D723D723D723D723D723D723D72312
:104ED000D723D723D723D723D723D723D723D72302
:104EE000D723D723D723D723D723D723D723D723F2
:104EF000D723D723D723D723D723D723D723D723E2
:104F0000D723D723D723D723D723D723D723D723D1
:104F1000D723D723D723D723D723D723D723D723C1
:104F2000D723D723D723D723D723D723D723D723B1
:104F3000D723D723D723D723D723D723D723D723A1
:104F4000994CBDBEFFFFFFFFFFFFFFFFFFFFFFFF0D
:104F5000FFFFFFFFFFFFFFFFDFFF9294E73979CEEE
:104F6000FFFFFFFFFFFFFFFFFFFFFFFFFFFFFFFF51
:104F7000FFFFFFFFFFFFFFFFFFFFFFFFFFFFFFFF41
:104F8000FFFFFFFFFFFFFFFFFFFFFFFFFFFFFFFF31
:104F9000FFFFFFFFFFFFFFFFFFFFFFFFFFFFFFFF21
:104FA000FFFFFFFFFFFFFFFFFFFFFFFFFFFFFFFF11
:104FB000FFFFFFFFFFFFFFFFFFFFFFFFFFFFFFFF01
:104FC000FFFFFFFFFFFFFFFFFFFFFFFFFFFFFFFFF1
:104FD000FFFFFFFFFFFFFFFFFFFFFFFFFFFFFFFFE1
:104FE000FFFFFFFFFFFFFFFFFFFFFFFFFFFFFFFFD1
:104FF000FFFFFFFFFFFFFFFFFFFFFFFF2C6B59CEFF
:10500000FFFFFFFF7DFF2CEBC7E1C7E1C7E1C7E171
:10501000C7E1C7E1C7E1C7E1C7E1C7E1C7E1C7E150
:10502000C7E1C7E169EAF7F5FFFFFFFFFFFFFFFFF9
:10503000FFFFFFFFFFFFFFFFFFFFFFFFFFFFFFFF80
:10504000FFFFBFEF7A7DD723D723D723D723D723DB
:10505000D723D723D723D723D723D723D723D72380
:10506000D723D723D723D723D723D723D723D72370
:10507000D723D723D723D723D723D723D723D72360
:10508000D723D723D723D723D723D723D723D72350
:10509000D723D723D723D723D723D723D723D72340
:1050A000D723D723D723D723D723D723D723D72330
:1050B000D723D723D723D723D723D723D723D72320
:1050C000D723D723D723D723D723D723D723D72310
:1050D000D723D723994CDDBEFFFFFFFFFFFFFFFF64
:1050E000FFFFFFFFFFFFFFFFFFFFFFFF9AD6CB5A37
:1050F000BEF7FFFFFFFFFFFFFFFFFFFFFFFFFFFF09
:10510000FFFFFFFFFFFFFFFFFFFFFFFFFFFFFFFFAF
:10511000FFFFFFFFFFFFFFFFFFFFFFFFFFFFFFFF9F
:10512000FFFFFFFFFFFFFFFFFFFFFFFFFFFFFFFF8F
:10513000FFFFFFFFFFFFFFFFFFFFFFFFFFFFFFFF7F
:10514000FFFFFFFFFFFFFFFFFFFFFFFFFFFFFFFF6F
:10515000FFFFFFFFFFFFFFFFFFFFFFFFFFFFFFFF5F
:10516000FFFFFFFFFFFFFFFFFFFFFFFFFFFFFFFF4F
:10517000FFFFFFFFFFFFFFFFFFFFFFFFFFFFFFFF3F
:10518000FFFFFFFFFFFFFFFFFFFF75AD1084FFFF75
:10519000FFFFFFFFFFFFDFFF10ECC7E1C7E1C7E143
:1051A000C7E1C7E1C7E1C7E1C7E1C7E1C7E1C7E1BF
:1051B000C7E1C7E1C7E1C7E1EFEB7DFFFFFFFFFFFD
:1051C000FFFFFFFFFFFFFFFFFFFFFFFFFFFFFFFFEF
:1051D000FFFFFFFFFFFF1ECF994CD723D723D72315
:1051E000D723D723D723D723D723D723D723D723EF
:1051F000D723D723D723D723D723D723D723D723DF
:10520000D723D723D723D723D723D723D723D723CE
:10521000D723D723D723D723D723D723D723D723BE
:10522000D723D723D723D723D723D723D723D723AE
:10523000D723D723D723D723D723D723D723D7239E
:10524000D723D723D723D723D723D723D723D7238E
:10525000D723D723D723D723D723D723D723D7237E
:10526000D723D723D723D723B954FDC6FFFFFFFF8A
:10527000FFFFFFFFFFFFFFFFFFFFFFFFFFFFF39CAD
:105280009294FFFFFFFFFFFFFFFFFFFFFFFFFFFF06
:10529000FFFFFFFFFFFFFFFFFFFFFFFFFFFFFFFF1E
:1052A000FFFFFFFFFFFFFFFFFFFFFFFFFFFFFFFF0E
:1052B000FFFFFFFFFFFFFFFFFFFFFFFFFFFFFFFFFE
:1052C000FFFFFFFFFFFFFFFFFFFFFFFFFFFFFFFFEE
:1052D000FFFFFFFFFFFFFFFFFFFFFFFFFFFFFFFFDE
:1052E000FFFFFFFFFFFFFFFFFFFFFFFFFFFFFFFFCE
:1052F000FFFFFFFFFFFFFFFFFFFFFFFFFFFFFFFFBE
:10530000FFFFFFFFFFFFFFFFFFFFFFFFFFFFFFFFAD
:10531000FFFFFFFFFFFFFFFF7DEF8A6271ECFFFFE2
:10532000FFFFFFFFFFFFFFFFFFFF34F5E7E1C7E1EE
:10533000C7E1C7E1C7E1C7E1C7E1C7E1C7E1C7E12D
:10534000C7E1C7E1C7E1C7E1C7E169EAF7F5FFFFD8
:10535000FFFFFFFFFFFFFFFFFFFFFFFFFFFFFFFF5D
:10536000FFFFFFFFFFFFFFFFFFFFFB95F72BD7239B
:10537000D723D723D723D723D723D723D723D7235D
:10538000D723D723D723D723D723D723D723D7234D
:10539000D723D723D723D723D723D723D723D7233D
:1053A000D723D723D723D723D723D723D723D7232D
:1053B000D723D723D723D723D723D723D723D7231D
:1053C000D723D723D723D723D723D723D723D7230D
:1053D000D723D723D723D723D723D723D723D723FD
:1053E000D723D723D723D723D723D723D723D723ED
:1053F000D723D723D723D723D723D723F95C1ED787
:10540000FFFFFFFFFFFFFFFFFFFFFFFFFFFFDFFFCC
:10541000EB62DBDEFFFFFFFFFFFFFFFFFFFFFFFF92
:10542000FFFFFFFFFFFFFFFFFFFFFFFFFFFFFFFF8C
:10543000FFFFFFFFFFFFFFFFFFFFFFFFFFFFFFFF7C
:10544000FFFFFFFFFFFFFFFFFFFFFFFFFFFFFFFF6C
:10545000FFFFFFFFFFFFFFFFFFFFFFFFFFFFFFFF5C
:10546000FFFFFFFFFFFFFFFFFFFFFFFFFFFFFFFF4C
:10547000FFFFFFFFFFFFFFFFFFFFFFFFFFFFFFFF3C
:10548000FFFFFFFFFFFFFFFFFFFFFFFFFFFFFFFF2C
:10549000FFFFFFFFFFFFFFFFFFFFFFFFFFFFFFFF1C
:1054A000FFFFFFFFFFFFFFFFEF7B4CD3C7E1AEEB3A
:1054B000BEFFFFFFFFFFFFFFFFFFFFFFF7F508E263
:1054C000C7E1C7E1C7E1C7E1C7E1C7E1C7E1C7E19C
:1054D000C7E1C7E1C7E1C7E1C7E1C7E1C7E1EFEB5A
:1054E0009EFFFFFFFFFFFFFFFFFFFFFFFFFFFFFF2D
:1054F000FFFFFFFFFFFFFFFFFFFFFFFF5EDFB9546E
:10550000D723D723D723D723D723D723D723D723CB
:10551000D723D723D723D723D723D723D723D723BB
:10552000D723D723D723D723D723D723D723D723AB
:10553000D723D723D723D723D723D723D723D7239B
:10554000D723D723D723D723D723D723D723D7238B
:10555000D723D723D723D723D723D723D723D7237B
:10556000D723D723D723D723D723D723D723D7236B
:10557000D723D723D723D723D723D723D723D7235B
:10558000D723D723D723D723D723D723D723D7234B
:105590003A6D7EE7FFFFFFFFFFFFFFFFFFFFFFFF0B
:1055A0009AD62C63FFFFFFFFFFFFFFFFFFFFFFFF08
:1055B000FFFFFFFFFFFFFFFFFFFFFFFFFFFFFFFFFB
:1055C000FFFFFFFFFFFFFFFFFFFFFFFFFFFFFFFFEB
:1055D000FFFFFFFFFFFFFFFFFFFFFFFFFFFFFFFFDB
:1055E000FFFFFFFFFFFFFFFFFFFFFFFFFFFFFFFFCB
:1055F000FFFFFFFFFFFFFFFFFFFFFFFFFFFFFFFFBB
:10560000FFFFFFFFFFFFFFFFFFFFFFFFFFFFFFFFAA
:10561000FFFFFFFFFFFFFFFFFFFFFFFFFFFFFFFF9A
:10562000FFFFFFFFFFFFFFFFFFFFFFFFFFFFFFFF8A
:10563000FFFFFFFFFFFF79CEEB82E7E1C7E1C7E1A4
:105640002CEB7DFFFFFFFFFFFFFFFFFFFFFFBAFE19
:1056500069EAC7E1C7E1C7E1C7E1C7E1C7E1C7E15F
:10566000C7E1C7E1C7E1C7E1C7E1C7E1C7E1C7E1FA
:1056700069EA18FEFFFFFFFFFFFFFFFFFFFFFFFFCD
:10568000FFFFFFFFFFFFFFFFFFFFFFFFFFFFFFFF2A
:105690001C9EF72BD723D723D723D723D723D72352
:1056A000D723D723D723D723D723D723D723D7232A
:1056B000D723D723D723D723D723D723D723D7231A
:1056C000D723D723D723D723D723D723D723D7230A
:1056D000D723D723D723D723D723D723D723D723FA
:1056E000D723D723D723D723D723D723D723D723EA
:1056F000D723D723D723D723D723D723D723D723DA
:10570000D723D723D723D723D723D723D723D723C9
:10571000D723D723D723D723D723D723D723D723B9
:10572000D723F72B9B85BFEFFFFFFFFFFFFFFFFF97
:10573000FFFF308496B5FFFFFFFFFFFFFFFFFFFF76
:10574000FFFFFFFFFFFFFFFFFFFFFFFFFFFFFFFF69
:10575000FFFFFFFFFFFFFFFFFFFFFFFFFFFFFFFF59
:10576000FFFFFFFFFFFFFFFFFFFFFFFFFFFFFFFF49
:10577000FFFFFFFFFFFFFFFFFFFFFFFFFFFFFFFF39
:10578000FFFFFFFFFFFFFFFFFFFFFFFFFFFFFFFF29
:10579000FFFFFFFFFFFFFFFFFFFFFFFFFFFFFFFF19
:1057A000FFFFFFFFFFFFFFFFFFFFFFFFFFFFFFFF09
:1057B000FFFFFFFFFFFFFFFFFFFFFFFFFFFFFFFFF9
:1057C000FFFFFFFFFFFFEB62CAE2C7E1C7E1C7E1EE
:1057D000C7E1AAEA3CFFFFFFFFFFFFFFFFFFFFFF5C
:1057E0005CFFEBEAC7E1C7E1C7E1C7E1C7E1C7E199
:1057F000C7E1C7E1C7E1C7E1C7E1C7E1C7E1C7E169
:10580000C7E1C7E130ECBEFFFFFFFFFFFFFFFFFF77
:10581000FFFFFFFFFFFFFFFFFFFFFFFFFFFFFFFF98
:10582000FFFF5EDFB954D723D723D723D723D7234E
:10583000D723D723D723D723D723D723D723D72398
:10584000D723D723D723D723D723D723D723D72388
:10585000D723D723D723D723D723D723D723D72378
:10586000D723D723D723D723D723D723D723D72368
:10587000D723D723D723D723D723D723D723D72358
:10588000D723D723D723D723D723D723D723D72348
:10589000D723D723D723D723D723D723D723D72338
:1058A000D723D723D723D723D723D723D723D72328
:1058B000D723D723D72318341C96DFFFFFFFFFFF22
:1058C000FFFF7DEFAA52BEF7FFFFFFFFFFFFFFFFC5
:1058D000FFFFFFFFFFFFFFFFFFFFFFFFFFFFFFFFD8
:1058E000FFFFFFFFFFFFFFFFFFFFFFFFFFFFFFFFC8
:1058F000FFFFFFFFFFFFFFFFFFFFFFFFFFFFFFFFB8
:10590000FFFFFFFFFFFFFFFFFFFFFFFFFFFFFFFFA7
:10591000FFFFFFFFFFFFFFFFFFFFFFFFFFFFFFFF97
:10592000FFFFFFFFFFFFFFFFFFFFFFFFFFFFFFFF87
:10593000FFFFFFFFFFFFFFFFFFFFFFFFFFFFFFFF77
:10594000FFFFFFFFFFFFFFFFFFFFFFFFFFFFFFFF67
:10595000FFFFFFFF75AD6DABC7E1C7E1C7E1C7E171
:10596000C7E1C7E169EADBFEFFFFFFFFFFFFFFFFC3
:10597000FFFFBEFF8DEBC7E1C7E1C7E1C7E1C7E1AC
:10598000C7E1C7E1C7E1C7E1C7E1C7E1C7E1C7E1D7
:10599000C7E1C7E1C7E1AAEABAFEFFFFFFFFFFFFC9
:1059A000FFFFFFFFFFFFFFFFFFFFFFFFFFFFFFFF07
:1059B000FFFFFFFFFFFF1C9EF72BD723D723D72323
:1059C000D723D723D723D723D723D723D723D72307
:1059D000D723D723D723D723D723D723D723D723F7
:1059E000D723D723D723D723D723D723D723D723E7
:1059F000D723D723D723D723D723D723D723D723D7
:105A0000D723D723D723D723D723D723D723D723C6
:105A1000D723D723D723D723D723D723D723D723B6
:105A2000D723D723D723D723D723D723D723D723A6
:105A3000D723D723D723D723D723D723D723D72396
:105A4000D723D723D723D723D723583C9DB6FFFF8F
:105A5000FFFFFFFF34A59294FFFFFFFFFFFFFFFF53
:105A6000FFFFFFFFFFFFFFFFFFFFFFFFFFFFFFFF46
:105A7000FFFFFFFFFFFFFFFFFFFFFFFFFFFFFFFF36
:105A8000FFFFFFFFFFFFFFFFFFFFFFFFFFFFFFFF26
:105A9000FFFFFFFFFFFFFFFFFFFFFFFFFFFFFFFF16
:105AA000FFFFFFFFFFFFFFFFFFFFFFFFFFFFFFFF06
:105AB000FFFFFFFFFFFFFFFFFFFFFFFFFFFFFFFFF6
:105AC000FFFFFFFFFFFFFFFFFFFFFFFFFFFFFFFFE6
:105AD000FFFFFFFFFFFFFFFFFFFFFFFFFFFFFFFFD6
